:020000040000FA
:100000002816001001030000090300000B03000084
:1000100000000000000000000000000000000000E0
:10002000000000000000000000000000F9010000D6
:1000300000000000000000008D020000D902000056
:10004000130300001303000000000000130300006E
:10005000411D000013030000000000001303000016
:100060001303000013030000130300001303000038
:100070001303000013030000130300001303000028
:1000800029140000130300001303000013030000F1
:10009000130300001303000013030000000000001E
:1000A00013030000130300001303000013030000F8
:1000B00013030000130300001303000013030000E8
:1000C00000F002F800F03EF80CA030C80838241800
:1000D0002D18A246671EAB4654465D46AC4201D180
:1000E00000F030F87E460F3E0FCCB6460126334274
:1000F00000D0FB1AA246AB46334318472432000017
:1001000044320000103A02D378C878C1FAD85207B6
:1001100001D330C830C101D504680C6070470000BD
:100120000023002400250026103A01D378C1FBD813
:10013000520700D330C100D50B6070471FB51FBDFB
:1001400010B510BD01F008F91146FFF7F7FF0FB425
:1001500000F00CF80FBC01F067FF00F06EF903B47B
:10016000FFF7EEFF03BC01F0F1F8000004B001F06E
:100170006FFF0448002101F0C3FF01F07DFF00F094
:100180005CF900003400001080F309887047EFF339
:1001900009807047684680F3098806480078C007E0
:1001A00003D1032080F314887047022080F3148861
:1001B0007047000020320000064B9C46EFF3058399
:1001C0001B0605D1EFF31483DB0701D000DF704776
:1001D00060470000BB210000064B9C46EFF30583FF
:1001E0001B0605D1EFF31483DB0701D000DF704756
:1001F000604700009D230000EFF309808169891E9C
:10020000097800292BD1A6461FC8A4467446E047AA
:10021000EFF3098307C31A4B06CB91421CD0083B6E
:1002200000290DD0EFF3098020388862F0C04446E1
:100230004D4656465F46F0C00CB402F025FC0CBC9F
:100240001A60906A1030F0C8A046A946B246BB4674
:1002500080F309882038F0C80220C043004710B559
:10026000084A1268914209D8074C89006458A6468A
:100270001FC8A446F047EFF309840FC410BD000067
:1002800058000010981300009813000002F0DCFAE8
:10029000104B06CB91421AD0083BEFF3098020386F
:1002A0008862F0C044464D4656465F46F0C00CB4E6
:1002B00002F0EAFB0CBC1A60906A1030F0C8A0464D
:1002C000A946B246BB4680F309882038F0C8022010
:1002D000C04300475800001002F088FCD8E7000037
:1002E00001F06AFF02F082FCD2E70000004870478C
:1002F000C40900107047704770477047FFFFFFFF49
:100300000748804707480047FEE7FEE7FEE7FEE7AD
:10031000FEE7FEE704480549054A064B7047000022
:10032000E11C0000C1000000280A0010281600107F
:100330002810001028100010FEB5054610460C4687
:10034000184373D0AE468C460020AD1A01469C413E
:1003500067D36646002701243D46B61A9D4102D365
:1003600013463A462124654676462F04360C3E4312
:100370002D0CB61A9D4104D3150C1B042B431204FB
:100380001034654676462F06360A3E432D0AB61AC5
:100390009D4104D3150E1B022B43120208346546FF
:1003A00076462F0736093E432D09B61A9D4104D3E0
:1003B000150F1B012B431201241D65467646AF071E
:1003C000B6083E43AD08B61A9D4104D3950F9B0075
:1003D0002B439200A41C65467646EF0776083E4301
:1003E0006D08B61A9D411AD392185B41641C16E041
:1003F0000018764665464941B71A9D410191009023
:1004000009D36046B11A98418E46844600980199F6
:100410000025401C6941DD0752082A435B08641E21
:10042000E6D57246634603B0F0BDFFE70020014603
:10043000C046C0462A462346F5E710B50446C046E6
:10044000C0462046FFF78BFE10BD002203098B42F9
:100450002CD3030A8B4211D300239C464EE0034663
:100460000B433CD4002243088B4231D303098B4217
:100470001CD3030A8B4201D394463FE0C3098B424D
:1004800001D3CB01C01A524183098B4201D38B01A6
:10049000C01A524143098B4201D34B01C01A524149
:1004A00003098B4201D30B01C01A5241C3088B428E
:1004B00001D3CB00C01A524183088B4201D38B0079
:1004C000C01A524143088B4201D34B00C01A52411B
:1004D000411A00D201465241104670475DE0CA0FF2
:1004E00000D04942031000D34042534000229C46B2
:1004F00003098B422DD3030A8B4212D3FC228901BC
:1005000012BA030A8B420CD3890192118B4208D391
:10051000890192118B4204D389013AD0921100E0F3
:100520008909C3098B4201D3CB01C01A5241830907
:100530008B4201D38B01C01A524143098B4201D334
:100540004B01C01A524103098B4201D30B01C01A5F
:100550005241C3088B4201D3CB00C01A52418308D9
:100560008B4201D38B00C01A5241D9D243088B422F
:1005700001D34B00C01A5241411A00D201466346D2
:1005800052415B10104601D34042002B00D5494236
:10059000704763465B1000D3404201B50020C0465F
:1005A000C04602BD0246C80FC00781434B0030B5AC
:1005B0004B405B009B0D20D01923DB06C91801239B
:1005C0001B05994220DB0324A40704251346AB40F6
:1005D0000BD3002B04D1EB0613409B00E34204D461
:1005E00001246407002312195941FF231B05994276
:1005F0000BD2C9000143500F09E0CB0204D50143DF
:100600000803024305D0054830BDFF21C905084352
:1006100030BD084607210905884330BD0000C07F72
:10062000F0B50C46871A9C410D46861A9D4103D2AF
:10063000C01BA141D21963410D0D1F0DC94EEC1B0A
:10064000AE435CD07F057F0D0026002F51D02D05D5
:10065000AC46A943DD020123ED0A1B051D432023FF
:100660001B1B24D41746E740381871412F46E7403A
:10067000CC199D402818314661410C0D27D16144A9
:100680009A4013D50023401C594152000ED1400816
:10069000400001224B005205D34207D305204007FA
:1006A000C14201D5B04900E0B0493046F0BD6B0011
:1006B000002A00D001229A181F23203C1B1B01D5C1
:1006C000002302E0E540281871410C0DD7D0012429
:1006D00024050919C407CD0740084908E40F284339
:1006E0006144002CD5D00024401C61419A40D0D1F7
:1006F000CDE76A05520DD9D1C90FC907D5E79C4D81
:100700004E00002801D0012400E0002434195F00CD
:10071000002A01D0012600E00026BE19954FAC4208
:100720000CD8AE420AD8B44206D001256D05EC4281
:10073000BCD010461946F0BD9942FCD00020394685
:10074000F0BDF0B51FB40C460F46811A9F412546F7
:10075000861A9D4106D20125ED076F40401ABC4123
:1007600052187B41210D1E0D8D1BAC467D4D8D43D6
:100770007ED075056D0D7CD00D05AE46AC431B03D8
:100780001B0B794D52429D41202366469B1B14D37F
:100790001746F740381800260090744160462F46EF
:1007A0000741E41900989D402818664116D4714607
:1007B00071189A4025D5012320E093182A466A41F2
:1007C0005200002B00D0521C1E23203E9B1B002BEE
:1007D00061DD3541EE1728186641E8D500187641ED
:1007E0005B1C9A4000D3401C4B05F3181524E340D2
:1007F00010D3002B52D071467118D30FC01802D3FA
:10080000491C05B0F0BD0123DB079A42F9D140082D
:100810004000F6E701225205B21801D1002853D05A
:100820000123CC0ADB029943891E002A08D1020C5D
:1008300003D0020C0004103902E0024600202039E7
:100840000023550B05D112020823550B01D152018B
:100850000D23550C01D112011B1DD50C01D19200A5
:100860009B1C150D01D152005B1C2025EE1A01E0E6
:100870002CE022E00546F54015439840CA1AE107EE
:1008800069181305C918002ABBDA032040070818A5
:10089000C10FC9070FE071466118B2E7F1074008C0
:1008A0000843711071444A000CD001235B059A4241
:1008B000A7D2C90FC9070020A3E74905490D26D1D2
:1008C000002001E00028F4D100219AE7284D6600BD
:1008D000002801D0012100E0002171185F00002AEA
:1008E00001D0012600E00026BE19224FA94210D8EF
:1008F000AE420ED8B14208D001256D05E94206D0BE
:100900001946A802414010467BE79C4201D021468F
:1009100077E70020394674E710B50C465C4005D5F2
:100920000124E4076340FFF70CFF10BDFFF778FEDA
:1009300010BD30B40C465C4004D50124E40763408C
:1009400030BC6DE630BCFCE670B50124E4076140C4
:100950000D465D4002D4FFF763FE70BD6340FFF7B4
:10096000F0FE70BDFF0700000000F0FF0000F07F08
:100970000000E0FF0000F87FF0B5F94D0C091E09FA
:100980002C402E402F468BB0A7437DD0B543FCD0E2
:10099000002E7AD0002CFCD00D465D40ED0F254393
:1009A000AC1BFF25AD0464190894C502440DC902AF
:1009B0002143500DDC0204430120C00701430443DE
:1009C000D2020191200C110C00958C4601042346A3
:1009D0008B430A9161460904E24D8A430991010A59
:1009E0007D4449198039097805464D4301266D1823
:1009F000F605751B6943C90C640B891C4C436418CC
:100A0000B5012C1B250C2E04B4434C434D43210C43
:100A1000691889090591009DE90701D00121C907DD
:100A200004912C4601996708CD072F434C08059D7A
:100A3000E10B4D432D0C29466646754302950D4644
:100A400045432E46029D7D1BB44100950D465D43F6
:100A500001942C0C2F040D465543AE462D0C3D43FE
:100A6000029503947546049C2D04641B049406D2DD
:100A7000029C039D641C002675410395029401AC01
:100A800070CC009F7D1B01E03EE162E1B4410904AE
:100A90000095079101940599A4086143090C0C463F
:100AA0004443650BE7040C4666467443A646640B54
:100AB0003C43039502947446049DE4042C1B049467
:100AC00006D2029C039D641C002675410395029486
:100AD00001AC70CC009F7D1BB44101940C465C437B
:100AE0000095650FE7000C465443A646640F3C434F
:100AF000039502947446049DE4002C1B049406D2D2
:100B0000029C039D641C002675410395029401AC70
:100B100070CC009F7D1BB441AE09AF06049DC90097
:100B2000AD092F43049DA406AD060495079D3443EB
:100B300069180791059DE10B4D432D0C294666462A
:100B4000754302950D4645432E46029D7D1BB441DB
:100B500000950D465D4301942C0C2F040D46554322
:100B6000AE462D0C3D43029503947546049C2D041E
:100B7000641B049406D2029C039D641C00267541EC
:100B80000395029401AC70CC009F7D1BB44101948D
:100B90008C050694079C890A611800950791019CB1
:100BA0000599A4086143090C0D464543680BEF0401
:100BB0000D46644665436C0B3C43049FED047D1B6E
:100BC000AC4602D20025641C6841009E019D371B83
:100BD00085410846584301950C46460FC5005443CD
:100BE000600F28436546E4002C1B02D20025401C00
:100BF0006E41019D3F1AB5412846BD098006284334
:100C00008446A009BF064E020699A406761807433B
:100C1000079D002068410A99079019430020099B0D
:100C200000906046FF1913434041E20F64003A43CD
:100C3000A4460446D71A8C41A04203D90120009053
:100C400020463A46C70F941840416246D20F2243CD
:100C5000644664000494009CBE466400D71AA4460F
:100C6000044602978C417746002F01D1A04204D957
:100C70006046401C8446029A2046C40FA64694183B
:100C80004041049A0546D20F224364466400D31AB9
:100C90008D417146002901D1A84202D928461A4641
:100CA000641C10430122002800D01643610200207A
:100CB000079B891904465C410223002C02DB49187A
:100CC00013466441089DCE0A2D145D194B05670536
:100CD000E10A2C050D1908993E43C9076940002B0C
:100CE00008D0934006D30022761C5141002B01D13D
:100CF000760876001C4A002D43DB154241D0AA43FA
:100D00003FD030460BB0F0BD06180D464D41174C94
:100D10007642AC411AD395181C465C41134A6D4289
:100D2000A24113D3012252054C00D4420AD15C00E7
:100D3000D4420BD04B4002D592021143E2E7490066
:100D40004908DFE75940C90FC90718E000200849E2
:100D5000D8E7054801420DD10342F7D0F2E7000081
:100D60000000FF077A2800000000F07F0000E0FF8D
:100D70000000F87F114859400143C0124140002053
:100D8000C0E70123089A9B069A4205DC032252071A
:100D90008918C90FC907B5E7052252078918074AFC
:100DA0001143D2125140ADE770B515461C460246BC
:100DB0000B4628462146FFF7DFFD70BDFFFFFF7F92
:100DC0000346CA02400D10B510430A1504D0012491
:100DD000E4072043002A05DB0A4CA21A04D4D040C1
:100DE000FF2A00DD002010BD4A00002B01D00120A9
:100DF00000E00020101801225205D042F2D8C81796
:100E0000C04310BD1E0400001F22030C02D10F229C
:100E1000000402D0030E03D004E000200146704716
:100E20000002083A030F01D10001121F830F01D104
:100E30008000921E002801DB4000521E120551184E
:100E40004205C012411810467047C10FC90700D0B3
:100E50004042012292071143D6E701218907D3E7D7
:100E6000F0B58B4C0F09254689B0BD437BD01D09D9
:100E70002646AE43FAD00E465E402740F60F3E436C
:100E8000254071D024012142FBD0FF24AD19A404D8
:100E90002D1B039501252D05DB02DB0AC9022B431F
:100EA000C90A29431E010901040F130F050121433B
:100EB0001701880B820391432D098C46A90B1E4311
:100EC0008A039543B30B9A0396433F09BA0B9403E5
:100ED000A74302962E467E430497B6464E19D7196D
:100EE0000C460196544305977E43371B7646BF1B3D
:100EF0003601B646BE0B361900967646BC04371945
:100F0000009C01D3641C00946400002F01D00126D2
:100F10003443029E049F754366467E4304967600E2
:100F200034196E0034190094029C019E1C1966430A
:100F3000751BAE46069465464519059C05956C43A0
:100F4000594375460891691A0191049E014651431F
:100F5000A41B0491611A009C0791E10605D0610968
:100F60000122114302E072E06EE06109089D002752
:100F70002C0A2D066918049D7C412A0A2D06691841
:100F8000019D6241AC0DAD026D185441079A910D5F
:100F9000920255196141029A644658435443069B94
:100FA000059A5A43121A131B9A0E9B015B187A4139
:100FB000010B0005C3185141220A200644195A4169
:100FC0009A4200D2491C01204002814203D31523DA
:100FD0000226F64302E014230326F6432020C51A16
:100FE000A9401746AF40DA400A4320460399D8404B
:100FF0000914731819055118039A3843D207514040
:10100000AC4009D00122944006D30022401C51413B
:10101000002C01D1400840001E4A934212D3012205
:1010200003989206904207DB0520400709181A48EA
:101030000143C012414004E0032040070818C10FDB
:10104000C907002009B0F0BD0020F107FAE7051834
:101050000C464C4111486D42A04115D394181A46D4
:101060005A410E48644290410ED301204A00400587
:10107000824209D35A00824206D35940C90F084A16
:10108000C90700201143DDE700200649DAE7000028
:101090000000FF07FE070000FFFFFF7F0000E0FFEA
:1010A0000000F07F0000F87F70B505464800440D51
:1010B000124B0020002C0AD0634008D09A4206DA76
:1010C0006642B24203DD12054019514170BD002C49
:1010D00008D0002B09D0C90FC907002AF6DB084A3F
:1010E000114370BDC90FC90770BD28460A031043DC
:1010F00002D00020034970BD284670BDFF070000E4
:101100000000F07F0000F87F0121C905012341188C
:1011100042001B06D3185B0E0AD0C1100722D2066C
:10112000891840075242D14201D5520089187047B0
:10113000090208D50146002A03D0C10FC9070020C3
:10114000704710467047420202D0002002497047A3
:10115000072109050143F4E70000F87FF0B5FF25FA
:101160002D04C609C209FF2704462E400137CB09CA
:101170003E4348402A402B400746002A6BD0002BB4
:1011800069D0AA4267D0AB4265D0002800DA324667
:101190000125ED0529432C4309022002090AD21A30
:1011A0004B0C7F24E31A434C000A7C44E35C7D240F
:1011B0002404121914145B00A218884201D3521C93
:1011C00000E0400049420C465C4324115C43DB01D3
:1011D0006415E318040A5C43C502200D0C46444321
:1011E0006419250A5D432303EC0C0D466543000397
:1011F0000019EB184C42A34201D35B18401CD405E4
:101200002018002B07D05B00C91804D3401C00290C
:1012100001D1400840003F2189048A4209D3002AB5
:1012200008DC1106090F04D0032149074018C00F3C
:10123000C007F0BD01224100120689187F22520624
:101240009142F6D205214907C84201D59010F0BD60
:10125000FF20C005F0BD002F00DA32461648AA4232
:1012600007D2AB4205D21902090E17D0F80FC007FA
:10127000F0BDFF2563002D06AB42F9D84900A94215
:10128000F6D8AB4201D1A942F2D0A94201D1002146
:1012900001E061004908D0050843F0BD1102090EC4
:1012A000FBD0FF200243D005F0BD0A4601461046A0
:1012B00054E70000302100000000C07F0102C21589
:1012C00004D00123DB071943002A0ADB9E239A1A64
:1012D00002D40846D0407047FF22410012069142D6
:1012E00001D900207047C017C04370471F22030C6C
:1012F00002D10F2200041CD0030E01D10002083AD3
:10130000030F01D10001121F830F01D18000921E33
:10131000002801DB4000521ED2055118021251185C
:101320001922904004D3491C002801D149084900E2
:1013300008467047C10FC90700D0404201229207FA
:101340001143D3E701218907D0E7000001491820A4
:10135000ABBEFEE7260002007546FEF7C7FFAE46AD
:10136000050069465346C008C000854618B020B540
:10137000FEF7D0FF60BC00274908B6460026C0C56E
:10138000C0C5C0C5C0C5C0C5C0C5C0C5C0C5403D3D
:1013900049008D46704700000000000081667047DC
:1013A000426E520152090A434266704700B501225B
:1013B000D20700F05DF800BD00B50B0000F036FD6F
:1013C0000C07090B0D0F11131517191B1D08006AC7
:1013D00000BD406A00BD806A00BDC06A00BD006BF0
:1013E00000BD406B00BD806B00BDC06B00BD006CDC
:1013F00000BD406C00BD806C00BDC06C00BD806E47
:10140000704770B504460D46102000F0C7FB182049
:1014100000F064F800206066256070BD0068400040
:10142000C017401C7047000010B5074C2046FFF75E
:10143000E6FFC00002D50549012008700121090717
:101440002046FFF7ABFF10BD00C0014018000010A0
:1014500070B50D46044600F071F82946FEF7F5FF19
:10146000401EC1B22068000A00020843206070BD1F
:10147000064B002904D0C16819401143C160704770
:10148000816819401143816070470000FF7F0CFCA8
:1014900010B50446006801218907084320602068D0
:1014A00089158843206005492046FFF7D1FF206851
:1014B000012189028843206010BD000020A107009F
:1014C00004490B68012282400348024393430B60A6
:1014D0007047000080800440000010DA0121814044
:1014E00003480268034B1A40114301607047000033
:1014F00080800440FFFFEF2510B50B490020096BE9
:101500008907890F08D0012908D0022909D00329A9
:1015100001D100F02DF810BD044810BD00F01AF8FC
:1015200010BD00F067F810BD40800440001BB700FC
:10153000C206D20E0846521C5043704710B5FFF742
:10154000DBFF0349896BC9B2FEF77FFF10BD0000C6
:10155000408004400448006881070448890F02D095
:10156000012900D00020704740800440001BB700D4
:1015700000B5FFF7EFFF0146034880684006400EC4
:10158000FFF7D6FF00BD000000800440014840691D
:10159000C0B270478080044010B5FFF7F7FF040029
:1015A0000AD0FFF7A9FF2146FEF74FFF014600F0E2
:1015B000E1FAFF2802D00DE000210BE000F0E0FA94
:1015C0000C0EC21D09020846F93200232146FEF71F
:1015D000B3FE0146084610BDC1050A0FC006810EC4
:1015E000900010B5024A891C1058FEF72EFF10BD5E
:1015F000D031000010B50348406AC005C00DFFF7A8
:10160000EBFF10BD008004400149486170470000B5
:1016100080800440F8B50D460646FFF76DFF07468B
:101620003146FEF712FF040000D101240D49E0B25B
:10163000486128000C4D0FD0022000F0A7FAFF20CF
:10164000286321463846FEF700FF00023146FEF7C8
:10165000FCFEC0B2686301E000202863FFF79CFF36
:10166000F8BD000080800440C080044010B51E4CCE
:1016700000212046FFF7C5FE2046FFF709FF204660
:10168000FFF7CCFE0028FAD018492046FFF7E0FE0D
:1016900000F0FEF9172000F0EFF9102000F0ECF94F
:1016A00000F0E4F912494A68182082434A60104960
:1016B00040314A6A82434A620E4A00212046FFF7BF
:1016C000D7FE01212046FFF76BFE0B480168402240
:1016D000090A0902114301600849900208600021CB
:1016E0002046FFF763FE10BD00C0014050C300005C
:1016F000004004400834004010E400E000E100E055
:10170000F8B52E4D0A212846FFF756FE2C4C000452
:101710006168000D4018606003212846FFF74CFE09
:101720000004A168000D4618A660E068451CE5604D
:10173000052841D329466068FEF787FE07462946FB
:101740003046FEF782FE00903846FFF786FB1D4DBF
:101750001D4E2A463346FFF783FB0122FFF7A4FC08
:101760001A4F00223B46FFF707F92A463346FFF798
:10177000E0F80222FFF798FCFEF714FF20610098C2
:10178000FFF76BFB2A463346FFF76AFB0122FFF7A0
:101790008BFC00223B46FFF7EFF82A463346FFF763
:1017A000C8F800220A4BFFF75BFBFEF7FBFE606107
:1017B00000206060A060E060F8BD000000C0014053
:1017C000180000106666666666660A4000FEAF4056
:1017D000000010C010B5052464071821204600F051
:1017E00032F91921204600F02EF900221821204656
:1017F00000F030F900221921204600F02BF910BD2D
:1018000010B5FFF79BFE04494968C904090E491C3D
:10181000FEF71BFE10BD000000400050F8B5082088
:10182000FFF75CFE34480168012252041143016055
:10183000416810221143416000F02AF91B217320F6
:1018400000F02CF91A21802000F028F900F00EF9A0
:10185000FFF7D6FF294D7D210901A860FEF7F5FDB0
:10186000274C206027490860686827490746FFF72A
:1018700075FC05462068FFF765FD294601F050FC20
:10188000FFF71CFD60602846FFF73EFC05460E464C
:101890002068FFF7E2FA2A463346FFF7E1FAFFF73E
:1018A0008FFAA0600125E560384600F035F817484A
:1018B000FF220260164941608260491CC1600261DA
:1018C000491C4161134B1D600B4940314C692C434D
:1018D0004C610224DC604E69042426434E6182611F
:1018E000A202C26108209861DC6188690F2210435E
:1018F00088610D61F8BD0000004000500C00001030
:1019000000410050004200500000C8420043005017
:101910000110000000450050F8B5124D12496860F2
:10192000FFF71CFC04467D210901A868FEF78DFD28
:101930000746FFF707FD214601F0F2FBFFF7BEFC6B
:101940000A4E70602046FFF7DFFB04460D4638461E
:10195000FFF783FA22462B46FFF782FAFFF730FAA9
:10196000B060F8BD0C0000100000C84200420050FA
:1019700004484168042291434160034901200870F2
:1019800070470000004000500C000010024610B5E7
:1019900005200E21400700F05DF810BD10B50524AC
:1019A0006407204600F04AF80E21204600F04BF86C
:1019B0001621204600F047F80020FFF7E7FF00203F
:1019C00000F034F800F064F80120FFF71DFE152147
:1019D000112000F063F81421122000F05FF800F0ED
:1019E00045F8104C204600F0EFF90421204600F0A5
:1019F000D9F9E12001214003FFF70CFE4B214902F8
:101A0000204600F0FFF9204600F0D4F9204600F00F
:101A100005FA0121204600F0EFF903491020086083
:101A200010BD00000080064000E100E0024610B555
:101A300005201621400700F00DF810BD10B5062056
:101A4000FFF74CFD10BD01228A404721C901401813
:101A50000260704701238B40002A02D01121490205
:101A600001E04521C90140180360704710B5072007
:101A7000FFF726FD10BD000004490B6801228240DB
:101A80007F204006024393430B607047C0C1004073
:101A900010B50720FFF722FD10BD000030B5050985
:101AA0000007FF24400E8440234A81402B0000F0B1
:101AB000BDF90C070C11161B20252A2F34393E0BBB
:101AC0001068A0430143116030BD5068A04301433A
:101AD000516030BD9068A0430143916030BDD06833
:101AE000A0430143D16030BD1069A043014311619F
:101AF00030BD5069A0430143516130BD9069A0439E
:101B00000143916130BDD069A0430143D16130BD33
:101B1000106AA0430143116230BD506AA0430143E3
:101B2000516230BD906AA0430143916230BDD06ADA
:101B3000A0430143D16230BD00C0004004494B685E
:101B4000012282400348024393434B6070470000E8
:101B5000008004400020FEFF0121814003484268CC
:101B6000034B1A401143416070470000008004405D
:101B7000FFDF01000148006BC0B27047C080044025
:101B80000148406BC0B27047C080044010B50446A5
:101B9000FFF7D4FF2046FFF7DFFF10BD054A916B2A
:101BA000054B1940184081436D20000201439163A9
:101BB0007047000000820440FF80000070B5364D81
:101BC0000020696AC905090F0B0000F02FF91026E3
:101BD000090B0D0F11131517191B1D1F2123252686
:101BE0002E481AE02E4818E02E4816E02E4814E041
:101BF0002E4812E02E4810E02E480EE02E480CE051
:101C00002E480AE02E4808E02E4806E02E4804E060
:101C10002E4802E02E4800E02E48696AC906C90E27
:101C2000491C4900FEF711FC1B4940310A6B2B4C43
:101C30009607294AB60F11D00023012E04D0022E98
:101C40000ED0032E1AD10DE008688007800F05D052
:101C5000012803D0022810D003280FD122600DE004
:101C600020600BE008688007800F0DD001280BD0A2
:101C7000022802D0032801D106E02360896B206886
:101C8000FEF7E3FB206070BDA868134AC006C00ED3
:101C9000401C5043E4E7000000800440C0270900D6
:101CA00090051000C05C1500F0B31A00200B200056
:101CB000009F2400E0322900C0C62D00509731005B
:101CC000E06735007038390000093D0040164000DB
:101CD00080234300C0304600001BB7004C000010BA
:101CE00070B514480168144A11430160114800227C
:101CF0004038026042600121416000E000BF43685B
:101D0000DB07FBD00B4B803B9A600C4CA56B80260D
:101D1000B543A56300E000BFDC68E407FBD0032304
:101D200003634263416300E000BF426BD207FBD014
:101D3000816370BD80800440800004000082044004
:101D400010B5154800F05AF8C2B20021012413481A
:101D5000212A02D18368002B0DD08368002B0CDD73
:101D60000D2A0BD00A2A0CD0012B0DD0022B04D146
:101D70008160017000E08460416010BD02218160DB
:101D800010BD8160047010BD4368402BF0DC044935
:101D9000CA545B1C436010BD008006400000001068
:101DA000740000100268024B1A400A430260704738
:101DB00001DAFC000168034A11400122114301606D
:101DC000704700007DDAFC0010B5044600F080F892
:101DD000FFF784FB0648844201D1032005E0054853
:101DE000844201D1042000E00520FFF7CFFE10BDA2
:101DF0000040064000800640C16070474069C00551
:101E0000C00D704770B50D460446FFF7C5FB2901AC
:101E1000FEF71BFB401E206270BD00004168024AB5
:101E200011404160704700000603010030B4744661
:101E3000641E2578641CAB4200D21D46635D5B00C6
:101E4000E31830BC184710B5002A06DA52005208D1
:101E5000D21DD308DB00102203E0D21C93089B00A4
:101E60000C22002B02D09C188C4201D9012010BDFD
:101E700082188360411802604160C91AD0188842F4
:101E800002D810600246F9E70020106010BD000083
:101E900080B505490978002904D0054F0068034939
:101EA000BC4600DF80BD000051000010FFFF0000B5
:101EB000D927000080B504490978002903D0034FD1
:101EC0000068BC4600DF80BD510000100127000003
:101ED0000549884201D10E2070470449884201D14A
:101EE0000F207047102070470040064000800640D9
:101EF00010B5FFF7F5FEFFF761FE1B487D21C90015
:101F00000068FEF7A2FA1949401E88420CD8184909
:101F1000486118480722C3691B021B0A4C0423436B
:101F2000C361002088610A61052464072046FFF729
:101F300085FD13212046FFF786FD12212046FFF77D
:101F400082FD012213212046FFF784FD0122122188
:101F50002046FFF77FFDFFF73DFCFFF71FFDFFF772
:101F60005DFCFFF783FB10BD4C000010FFFFFF007E
:101F700000E000E004ED00E00EB502468020002AFB
:101F80000DD000290BD11178012908D1104601A9E3
:101F900000F021F8042801D0002000E01020029A6F
:101FA000019903B000BD70B50D46040004D0002AAD
:101FB00002D12078012801D0802070BD204600F099
:101FC000ABFA002805D02946204600F027F800206B
:101FD00070BD812070BD10B50446808900281CD0DA
:101FE000608980000019006908606078022805D1C6
:101FF0000021204600F070FC00F05EFC72B6A08963
:10200000401EA08162B66089401C80B26081E18977
:10201000884201D100206081042010BD10B500F07D
:102020005BFC00F049FC10BDFFF762FFFFF7A0FC6E
:10203000054D064C0026286920780028FBD0267024
:10204000FFF75EFBF7E7000000E000E0180000107B
:1020500080B5EFF30580002801D0822080BDEFF32A
:102060001480C00703D0034FBC4600DF80BD00F0E2
:102070001FFF80BDB12E000080B588B0EFF3058052
:10208000002802D0822008B080BDEFF314808107C1
:102090001248890F06D001291AD0022910D003292D
:1020A00018D112E008A981F309880078C0070AD086
:1020B000022080F31488BFF34F8FBFF36F8F09E0C6
:1020C0000078C00706D10320F3E70078C00701D0ED
:1020D000FF20D8E7024FBC4600DFD4E720320000E3
:1020E000292F000080B5EFF30582002A02D0FFF708
:1020F00043FF80BD014FBC4600DF80BD9F2F000025
:1021000080B5EFF30582002A01D0002080BDEFF3F7
:102110001482064BD2075B78D20F1A4303D0044FC8
:10212000BC4600DF80BD00F059FF80BD50000010AC
:10213000DD2F0000034FBC4600DF034FBC4600DF2D
:10214000FEE70000553000007130000080B5024FFE
:10215000BC4600DF80BD0000AD3000000025094C0A
:10216000ED4329462068FFF7BDFF02460846102AC6
:10217000F7D1FFF7EBFF0028F3D00246084690475F
:10218000EFE7000048000010FEE7FEE7074801689F
:102190000748416100218161072101610548016A09
:1021A000FF22120611430162401770471C320000E3
:1021B00000E000E000ED00E070470146EFF3108022
:1021C000C207D20F72B60868002801D003680B60FE
:1021D000002A00D162B6704710B500280ED0002941
:1021E0000CD00B318A089200016844680B1A1B1B43
:1021F000934205D2084609680029F5D1002010BD98
:10220000210007D0211803680B604A60016008466E
:10221000083010BD4260083010BD000070B50D469A
:1022200000280FD00849094C884204D22268014690
:10223000104600F071FB20684570054800F0D9F8A1
:1022400000F036FC70BD0000FFFF000058000010D9
:102250009409001010B50E480C4942680D480B68EF
:102260000068934204D00A60CB88421E9A188A8084
:102270008A8880B2824208D100200860044800F0B9
:10228000B8F80146024800F06FFB10BD6C0000106A
:10229000940900106800001070B51A4DE868002815
:1022A0002FD0A88A401EA882002624E0A06800281B
:1022B00008D0616841606068002802D0A168816030
:1022C0006660A6600F482146183800F04DFBA08AD2
:1022D000A8826078042804D10B49E08A0988401854
:1022E000A08201206070E068E860E068002801D00A
:1022F0000561E6602661A88A002802D1EC68002CFE
:10230000D4D170BDAC0900106800001070B5040095
:102310000ED00C4DA17828680126827891420BD905
:1023200000F040FB28684670204600F0C1FB70BDFD
:10233000054800F05EF8F8E766702146024800F0B4
:1023400013FB70BD580000109409001010B504462E
:10235000008B084320836278618B062A17D0052AF8
:1023600014D1084212D00A46024062838843208377
:10237000204600F040FB01206070628B082120465F
:1023800000F035FB2146044800F0EEFA10BD0A4685
:102390008243EBD010BD000094090010814202D3AB
:1023A00042688A4201D801207047EFF31082D207B9
:1023B000D20F72B603680B60016000D162B60020D4
:1023C0007047002810D000290ED00022083903E001
:1023D00002460068002807D08842F9D1002A05D0BB
:1023E00000681060002070470120704700214160A4
:1023F000F8E70146406842684A600B780022022BE9
:1024000005D0012B03D0032B01D0426070474368F5
:10241000002B01D09960426082607047810700D034
:102420000020704770B50446154600202070012238
:1024300062702246A170203211716060A060E0607D
:1024400020612062A082E082208360835071E08C52
:10245000002803D10448FFF7B0FEE0622946204679
:1024600000F01EF870BD000050020010002801D0DE
:10247000082901D2012070474118091F002201607C
:102480000A6042601046704703480021016003491A
:102490000988C180704700006C00001018320000ED
:1024A000F0B5C28C194D930802D12A881204930CFE
:1024B000C26A9C001219540700D5121F0124240679
:1024C000403AD463002491632646A700641CD65189
:1024D0000E2CFAD3C4691462826201632968C900B0
:1024E0000FD5112B0DD9103B5908094B02E0083AC2
:1024F00053601360491EFAD1C16A121F8A4200D983
:102500001360C06A03490160F0BD0000143200008E
:10251000CCCCCCCCA52E5AE2C1898089081A704750
:102520000122027000224270827042600281428168
:102530008281034A89038918090CC1817047000010
:102540000000FCFFF8B50446406800270D4600284F
:1025500044D060780126012837D0022813D0032800
:1025600032D10846FFF729FE05002DD02046FFF79F
:1025700040FF0446294600F037FA6670204600F016
:102580003AFA21461DE02046FFF733FF05460021B9
:1025900000F02AFA2189E86989000919086172B6F0
:1025A000A089401CA08162B62089401C80B2208195
:1025B000E189884200D127816E70284600F01BFA1D
:1025C0002946134800F0D0F9F8BD2046FFF711FF67
:1025D00004462A46102100F00AFACEE7A089E189D4
:1025E000884211D2208980000019056172B6A08945
:1025F000401CA08162B62089401C80B22081E18904
:102600008842E1D12781F8BD0320FFF7BDFDF8BD69
:102610009409001070B504468089002615460028EC
:1026200034D0608980000019006908606089401C0E
:1026300080B26081E189884200D1668160680028AB
:1026400002D06078022806D072B6A089401EA08110
:1026500062B6002070BD2046FFF7CBFE0546002184
:1026600000F0C2F92189E869890009190861208907
:10267000401C80B22081E189884200D12681284611
:1026800000F0B9F92846FFF741FEE2E7002D08D037
:102690000B4862680168002A05D0204600F064F902
:1026A00008E0012070BD616001684E6000688460D0
:1026B0000120607008212846FFF7B0FDF1E7000017
:1026C0005800001010B5411C11D00A490A4C88422C
:1026D0000BD87D21C900484308490A688018114673
:1026E000401EFDF7B2FEA04200D9204610BD0248B0
:1026F000401C10BD00093D00FEFF00002C32000010
:10270000F8B504464088002804D0314DA1682A68F5
:10271000914201D0FF20F8BD401E0004000C6080F3
:1027200053D12968086AA04209D1E068086208E02C
:10273000C268A24202D1E268C26002E010460028EC
:10274000F6D12420405C0A6A07E05368002B03D0CE
:102750009B78834200D91846D268002AF5D1887048
:1027600061680126002922D02046FFF742FE074675
:10277000002100F039F9384600F03DF96680A76085
:10278000386AE0603C621348296840688A7880783B
:10279000824201D3384616E00E4800F0E5F839468B
:1027A0000C4800F0E1F8286846707E700AE009499C
:1027B00049688A782968824207D9064800F0D4F827
:1027C000286846700020FFF7A1FD0020F8BD00003A
:1027D000580000109409001070B50E46194D0446BB
:1027E00041882868002907D0A168814209D1608802
:1027F000401C6080002070BDA060016AE16004623E
:10280000F5E7002E0FD08A788078824203D2887054
:10281000A06800F0D1F86068002806D0204629683A
:1028200000F0A2F808E0012070BD28686060296807
:10283000002048602868846009213046FFF7EEFCDC
:10284000F1E700005800001070B518480121026837
:102850005170006800F0A6F8154C657813E0E800A8
:10286000011948680278002A17D0012A1AD000F00E
:10287000F1F8E0786D1C854200D1002572B6A07891
:10288000401EA07062B6A0780028E8D165700948A3
:10289000FFF7AFFD00F00CF970BD098989B2FFF7B1
:1028A00055FDE6E78968FFF74DFEE2E758000010A6
:1028B000C00800109409001005480178002902D0D2
:1028C00001214170704701200249000748607047AC
:1028D0006000001000ED00E070B50E4BDD789C1C30
:1028E0001E4672B69A78AA4207D2521C22703278DB
:1028F000541CAC4200D10024347062B6DC7894429F
:1029000004D9D200D2189160506070BD0220FFF748
:102910003BFC70BDC008001010B5124AD368002BF4
:1029200017D013469B8A04E0002C12D02246A48ABA
:10293000E318D4688B42F7D3C460D0600261C468E6
:10294000002C00D02061591A8182908A401A90820E
:1029500010BD0024C460D060C91A026191828482D3
:1029600010BD0000AC09001030B502780023022A27
:1029700003D0012A01D0032A00D101238C7800E082
:1029800010464268002A02D09578A542F8D24A60E3
:102990004160002B04D0002A00D09160886030BDD7
:1029A0000020FBE703494A684260002282604860D9
:1029B000704700009409001010B583680446002B8E
:1029C00005D1607801280CD1064B03E09B6818788C
:1029D0000028FBD0204600F023F821461846FFF7D8
:1029E000C3FF10BD94090010806A01627047806ABD
:1029F00042620162704710B5016900290FD0C268B8
:102A0000CA60C3680022002B07D08B8A848A1B19F6
:102A10008B82C3681961C26000E08A82026110BDC6
:102A20008168002907D042684A604168002901D0C6
:102A3000806888607047064906E04A68824202D191
:102A400040684860704711460029F6D17047000081
:102A50009409001010B5416800290FD0FFF7C9FC98
:102A60000446FFF7C8FF0120607001462046FFF7CB
:102A7000BBFF21460348FFF777FF10BD4188491C83
:102A8000418010BD9409001010B507480068816AA4
:102A9000C06A814203D300680449884202D0012001
:102AA000FFF772FB10BD000058000010A52E5AE27F
:102AB0000249486002214170704700005800001030
:102AC00070B5002004462049204A02E08300CC5023
:102AD000401C13889842F9D31D48342201881D48B0
:102AE000FFF7B1F91C4801210088C90780B24218DC
:102AF0001A4801681A48FFF7A6F91A4808220188FF
:102B000019480068FFF79FF9184DFF20E870EC8422
:102B1000174A00212846FFF785FC1648042101705A
:102B2000446015480170C4600461848213481549EB
:102B30000560022068701248047044700978C17002
:102B4000FFF7A2FC70BD0000440900101032000025
:102B500034320000D400001014320000383200007B
:102B6000500200105C3200003000001060090010BC
:102B70008B21000094090010AC09001058000010CF
:102B8000C00800104032000010B51448016AFF224E
:102B9000120411430162C169026A5202920E920646
:102BA0001143C161FFF7F2FA0D490028086013DBF9
:102BB00082080C49920051180A688307DC0EFF2333
:102BC000A3401A430A60C206D20E0121914040116F
:102BD000054A80008018016010BD000000ED00E093
:102BE0006400001000E400E000E100E010B50B48D4
:102BF0000121026851700068FFF7D4FEFFF72AFB3D
:102C000007480168491C0160FFF746FB00F05CFAC9
:102C10000448FFF7EEFBFFF74BFF10BD5800001014
:102C20006800001094090010002805D0810702D127
:102C30000178002900D000207047000030B50C4C0E
:102C40000023626805E095688D4204D81346126837
:102C5000491B002AF7D102608160002A02D09568E2
:102C6000691A9160002B01D0186030BD606030BDE2
:102C700050000010FFB5080681B01E4617460C46EE
:102C8000000E00D14C1C1448FFF797FA050021D024
:102C90002002000CEF62E884EE61E1B22846019A5E
:102CA000FFF7C0FB01240D480D4906E0A2001218F1
:102CB000803AD26F002A04D0641C0A889442F5D965
:102CC0000024A10008188038C567EC702846FFF77B
:102CD0001DFB204605B0F0BDD400001044090010D3
:102CE00010320000F8B5484D0028296802D0CA7893
:102CF000824238D100274F70FDF749FA296888626F
:102D0000FFF7C2FE2868046A19E06068002815D041
:102D10002046FFF76EFB06460021FFF765FE3046B2
:102D2000FFF769FE0120707031463848FFF71CFE3E
:102D300001216180A660316AE1603462E468002CA0
:102D4000E3D12868C1788A00314951188039CF67AA
:102D5000C16A3048FFF722FB29682F48CF62FFF78E
:102D60001DFB2F604AE02D49098888420ED881005A
:102D700027480F18803FFD6F002D07D02846FFF72A
:102D80004FFE2846FFF737FE2C6A1DE0FF20F8BDF6
:102D90006068002817D02046FFF72BFB064600216D
:102DA000FFF722FE3046FFF726FE01207070314605
:102DB0001648FFF7D9FD01216180A660316AE16004
:102DC0003462E46800E0E468002CE1D1FC6711485B
:102DD000E96AFFF7E3FA29460F48EC62FFF7DEFAEB
:102DE0000A4840688278084801688B789A4208D976
:102DF00001224A7001680548FFF7B6FD0020FFF781
:102E000085FA0020F8BD0000580000109409001059
:102E10004409001050020010D400001010320000CD
:102E200070B51B4D002811D01A4A1288904220D844
:102E30008200194810188038C46F002C19D0A17076
:102E4000242001552868A04205D014E0286881702C
:102E5000286820300171114840688078884215D96F
:102E60000E482968FFF780FD29680120487000207E
:102E70000AE0FF2070BD2046FFF79EFD6078012824
:102E800004D10648FFF7B5FAFFF740FA002070BDFD
:102E9000580000101032000044090010940900107E
:102EA00002480068002800D0C07870475800001021
:102EB00010B5154C207800280DD11448400706D1D4
:102EC000134801681148FFF7D1FA002801D0852086
:102ED00010BDFFF7F5FD0F49FF20096888702078C5
:102EE00000280BD100210C4800F044F80B49086081
:102EF00000210B4800F072F80A4908600120207098
:102F00000020607010BD000050000010100700107D
:102F10003C320000580000105432000048000010FD
:102F2000443200004400001070B5104D687800284D
:102F300001D0002070BD0E4C2068203001790020A7
:102F4000FFF76EFF2068C178FF2903D1816A203125
:102F500081F309886168002902D160600020206047
:102F6000FFF712FE01206870E3E700005000001038
:102F70005800001010B5040008D02168002905D0C1
:102F80006068002802D00278002A01D0002010BD1D
:102F90008900103189B2FFF7C3FA606810BD3EB5F1
:102FA000044680200D46002C13D02178012910D131
:102FB0002846FFF787FB82B2204601A9FFF72AFBCC
:102FC000012801D0102004E0002D01D0402000E0B5
:102FD0000020029A019903B030BD000070B50E4682
:102FE00004002ED0206800282BD00420205EC11CB5
:102FF00027DB032825DCE168002905D01248FFF70C
:10300000EBF8050016D000E000250421615EE068C1
:10301000091D0002014333462A462068FFF72AFEB5
:10302000002808D00949800040188038C06F08493E
:10303000826A516370BD002D03D029460248FFF714
:10304000C0F9002070BD00001007001044090010F6
:103050003521000010B5FFF723FF002804D00349F5
:10306000800040188038C06F10BD00004409001077
:1030700010B5FFF7D9FD002804D0C18C002903D07A
:10308000C46A02E0802010BD0024C078FFF72AFE49
:10309000FF2807D0002C03D021460348FFF791F901
:1030A000002010BD812010BD1007001010B5FFF7E3
:1030B000B5F9002805D0416902690968084611463A
:1030C00010BD0020014610BDF8B5134E7468002CE9
:1030D0001BD0A068114F401EA06013E02546246855
:1030E0007460002229463868FEF75DFF002802D090
:1030F0000420FFF749F86879012807D001202871DA
:10310000002C02D0A0680028E8D0F8BD2846E96865
:10311000FFF794FDF4E70000500000104800001095
:1031200070B5420064414B005C41120E39D01B0E59
:1031300038D0FF2A3CD0FF2B3AD040024902400A47
:10314000490A060045184E43000A090AD2184843A6
:10315000ED017F3A0104731A4019190C4318990FB5
:1031600004D001215B0849075B1A521CD80904D31B
:10317000401CF50301D19D0607D0FF2A08D2D505D2
:1031800006D0E4072043401970BD0125A843F4E7A9
:10319000002A01DCE00770BD2402FF202043C005A7
:1031A00070BD1B0EFF2A03D0FF2B01D0E00770BDBE
:1031B000FF2645003606B54206D84D00B54203D875
:1031C000D218FF2A00D0E7E7004870BD0000C07F9A
:1031D00000000000C027090090051000C05C150029
:1031E000F0B31A00200B2000009F2400E0322900D9
:1031F000C0C62D0050973100E067350070383900A7
:1032000000093D004016400080234300C0304600C6
:1032100007000000C800020105000100DF2E0000C9
:1032200001000000020001004E000400E80300005D
:103230000000000078010000C0040000B0010000A0
:10324000100000005D2100000200000001000000ED
:10325000C800000004000000B400001000008080DE
:103260007F7E7D7C7B7A79787776767574737271E0
:1032700071706F6E6E6D6C6C6B6A6A696868676698
:1032800066656464636362616160605F5F5E5E5D2A
:103290005D5C5C5B5B5A5A5959585857575656559E
:1032A00055555454535352525251515050504F4F00
:1032B0004F4E4E4D4D4D4C4C4C4B4B4B4A4A4A4950
:1032C0004949484848474747474646464545454493
:1032D0004444444343434342424242414141818248
:1032E000838485868788898B8C8D8E8F9192939528
:1032F0009697999A9C9D9FA0A2A3A5A7A8AAACAEB9
:10330000B0B2B3B5B7B9BCBEC0C2C5C7C9CCCED1C7
:10331000D4D7D9DCDFE2E6E9ECF0F3F7FAFE0000FF
:1033200040330000000000107400000004010000A1
:10333000B433000074000010B41500002001000038
:10334000000000000000000000000000000000007D
:1033500000004842000000000000000000000000E3
:10336000000000000000000000000000000000005D
:103370000000000029200000000000000100000003
:10338000C80000000000000000000000001BB700A3
:10339000000000000000000000000000000000002D
:1033A000000000000000000000000000000000001D
:0433B0000000000019
:04000005000000C136
:00000001FF
