:020000040000FA
:10000000781500108D020000950200009702000094
:1000100000000000000000000000000000000000E0
:10002000000000000000000000000000710300005C
:100030000000000000000000050400005104000062
:100040009F0200009F020000000000009F020000CD
:10005000AD4400009F020000000000009F0200006D
:100060009F0200009F0200009F0200009F0200000C
:10007000414600009F0200009F0200009F02000016
:100080006D2D00009F0200009F0200009F020000F3
:100090009F0200009F0200009F020000000000007D
:1000A0009F0200009F0200009F0200009F020000CC
:1000B0009F0200009F0200009F0200009F020000BC
:1000C00000F002F800F0C1F80CA030C8083824187D
:1000D0002D18A246671EAB4654465D46AC4201D180
:1000E00000F0B3F87E460F3E0FCCB64601263342F1
:1000F00000D0FB1AA246AB46334318476C6C000095
:100100008C6C0000103A02D378C878C1FAD8520734
:1001100001D330C830C101D504680C6070470000BD
:100120000023002400250026103A01D378C1FBD813
:10013000520700D330C100D50B60704710B56E294F
:1001400002D101F05FFB10BD702902D101F099FCD2
:1001500010BD662902D106F0E3FC10BD652902D16D
:1001600006F0DEFC10BD672902D106F0D9FC10BDF7
:10017000612902D1C046C04610BD03681B0A01D3E5
:1001800080231943692902D101F006FB10BD6429BF
:1001900002D101F001FB10BD752902D101F0FCFA7A
:1001A00010BD6F2902D101F017FC10BD782902D1D2
:1001B00001F054FC10BDE92902D101F0B3FB10BDE0
:1001C000E42902D101F0AEFB10BDF52902D101F006
:1001D000A9FB10BDEF2902D101F00AFC10BDF829DE
:1001E00002D101F049FC10BD0368DB0901D3802373
:1001F0001943632902D102F082F810BD732902D19C
:1002000002F085F810BDE32902D102F08FF810BD8D
:10021000F32902D102F092F810BD002010BD1FB5E5
:100220000098019901F01DFA02F060F90400002025
:10023000002106F0D1FA401C60600020002106F089
:10024000E1FAE0601FBD10B510BD02F030F91146B3
:10025000FFF7E5FF0FB400F00BF80FBC04F0F8FB5C
:1002600000F027FA03B4FFF7EEFF03BC02F018F921
:1002700004B005F01DFA0448002105F071FA05F0FC
:100280002BFA00F016FA00007000001007488047B3
:1002900007480047FEE7FEE7FEE7FEE7FEE7FEE76A
:1002A00004480549054A064B704700001544000004
:1002B000C1000000780D00107815001078110010B2
:1002C0007811001000487047140D0010434351434B
:1002D00030B55C18010C130C0D4692B25D4380B230
:1002E00051432C19054655430A0C09044D19624126
:1002F0005843010C00044019514130BDFFFFFFFF7E
:1003000080F309887047EFF309807047684680F3EF
:10031000098806480078C00703D1032080F31488B9
:100320007047022080F3148870470000906B000033
:10033000064B9C46EFF305831B0605D1EFF31483B0
:10034000DB0701D000DF704760470000375800002E
:10035000064B9C46EFF305831B0605D1EFF3148390
:10036000DB0701D000DF704760470000195A00002A
:10037000EFF309808169891E097800292BD1A646EF
:100380001FC8A4467446E047EFF3098307C31A4B1E
:1003900006CB91421CD0083B00290DD0EFF3098019
:1003A00020388862F0C044464D4656465F46F0C04D
:1003B0000CB405F0B3FE0CBC1A60906A1030F0C8A3
:1003C000A046A946B246BB4680F309882038F0C84B
:1003D0000220C043004710B5084A1268914209D86C
:1003E000074C89006458A6461FC8A446F047EFF39F
:1003F00009840FC410BD00008C000010942C000074
:10040000942C000005F06AFD104B06CB91421AD0E7
:10041000083BEFF3098020388862F0C044464D461F
:1004200056465F46F0C00CB405F078FE0CBC1A606E
:10043000906A1030F0C8A046A946B246BB4680F389
:1004400009882038F0C80220C04300478C00001003
:1004500005F016FFD8E7000005F0ECF905F010FFF5
:10046000D2E700000B30C008C0007047F8B517464F
:100470000E460446FFF7F6FFA042054633D9304644
:100480000C30002F009001D004F002FA746830465E
:10049000002C1DD02168A94216D30A4629460831EE
:1004A0008A4208D3626861194A602268521B0A6056
:1004B0004160256001E061684160002F02D0009832
:1004C00004F00EFA201DF8BD20466468002CE1D12E
:1004D0002946304601F0B0F80028D7D1002F02D0CD
:1004E000009804F0FDF90020F8BD10B5044601F0B5
:1004F00096F8016820460122FFF7B8FF10BDF8B555
:1005000015460F46041F002828D03E460C36002D05
:1005100002D0304604F0BCF9394600E00146486894
:10052000002801D0A042F9D30A685318A34204D18D
:1005300023680C46D2180A6000E04C6021680A1952
:10054000824205D14268626000680818206000E0BD
:100550006060002D02D0304604F0C2F9F8BD10B53D
:10056000044601F05CF8016820460122FFF7C7FF4E
:1005700010BDFEB5054610460C46184373D0AE4676
:100580008C460020AD1A01469C4167D36646002781
:1005900001243D46B61A9D4102D313463A46212412
:1005A000654676462F04360C3E432D0CB61A9D4107
:1005B00004D3150C1B042B431204103465467646F5
:1005C0002F06360A3E432D0AB61A9D4104D3150E56
:1005D0001B022B4312020834654676462F07360964
:1005E0003E432D09B61A9D4104D3150F1B012B4321
:1005F0001201241D65467646AF07B6083E43AD0896
:10060000B61A9D4104D3950F9B002B439200A41C66
:1006100065467646EF0776083E436D08B61A9D415B
:100620001AD392185B41641C16E0001876466546A2
:100630004941B71A9D410191009009D36046B11A12
:1006400098418E468446009801990025401C6941D6
:10065000DD0752082A435B08641EE6D572466346EE
:1006600003B0F0BDFFE700200146C046C0462A4661
:100670002346F5E71CB50C46064B7B4469460090C3
:10068000204601F0D8F804460020694601F0E6F85B
:1006900020461CBDDF11000070B5064600F0C4FF07
:1006A0000468054630460A22002101F0BBFA2C609E
:1006B00070BD10B50446C046C0462046FFF7D2FDC7
:1006C00010BD000030B5441C03E00178401C002937
:1006D0000DD08107F9D10B4BDD0104C8D11A91432C
:1006E0002940FAD0001B0A0603D0C01E30BD001BF3
:1006F00030BD0A0401D0801E30BD0902FCD0401E6E
:1007000030BD000001010101F8B507460B4639462E
:100710001943890713D1164CE601042A0FD302CBE3
:100720000D1B8D43354202D102C0121FF5E7CBB23B
:100730000370401C521E002B13D0090AF7E7002A51
:1007400014D01978521E5B1C0170401C002908D07F
:10075000002A0BD01978521E5B1C0170401C002926
:10076000EDD1002A02D0114601F0B0FA3846F8BDAA
:1007700001010101002203098B422CD3030A8B42A1
:1007800011D300239C464EE003460B433CD4002289
:1007900043088B4231D303098B421CD3030A8B429B
:1007A00001D394463FE0C3098B4201D3CB01C01A69
:1007B000524183098B4201D38B01C01A5241430934
:1007C0008B4201D34B01C01A524103098B4201D322
:1007D0000B01C01A5241C3088B4201D3CB00C01A8F
:1007E000524183088B4201D38B00C01A5241430807
:1007F0008B4201D34B00C01A5241411A00D201462C
:100800005241104670475DE0CA0F00D049420310C4
:1008100000D34042534000229C4603098B422DD313
:10082000030A8B4212D3FC22890112BA030A8B42BB
:100830000CD3890192118B4208D3890192118B420A
:1008400004D389013AD0921100E08909C3098B428F
:1008500001D3CB01C01A524183098B4201D38B01D2
:10086000C01A524143098B4201D34B01C01A524175
:1008700003098B4201D30B01C01A5241C3088B42BA
:1008800001D3CB00C01A524183088B4201D38B00A5
:10089000C01A5241D9D243088B4201D34B00C01A2F
:1008A0005241411A00D20146634652415B10104644
:1008B00001D34042002B00D54942704763465B108C
:1008C00000D3404201B50020C046C04602BD70477B
:1008D000704770470246C80FC00781434B0030B5D0
:1008E0004B405B009B0D20D01923DB06C918012368
:1008F0001B05994220DB0324A40704251346AB40C3
:100900000BD3002B04D1EB0613409B00E34204D42D
:1009100001246407002312195941FF231B05994242
:100920000BD2C9000143500F09E0CB0204D50143AB
:100930000803024305D0054830BDFF21C90508431F
:1009400030BD084607210905884330BD0000C07F3F
:10095000F0B50C46871A9C410D46861A9D4103D27C
:10096000C01BA141D21963410D0D1F0DC94EEC1BD7
:10097000AE435CD07F057F0D0026002F51D02D05A2
:10098000AC46A943DD020123ED0A1B051D432023CC
:100990001B1B24D41746E740381871412F46E74007
:1009A000CC199D402818314661410C0D27D1614476
:1009B0009A4013D50023401C594152000ED14008E3
:1009C000400001224B005205D34207D305204007C7
:1009D000C14201D5B04900E0B0493046F0BD6B00DE
:1009E000002A00D001229A181F23203C1B1B01D58E
:1009F000002302E0E540281871410C0DD7D00124F6
:100A000024050919C407CD0740084908E40F284305
:100A10006144002CD5D00024401C61419A40D0D1C3
:100A2000CDE76A05520DD9D1C90FC907D5E79C4D4D
:100A30004E00002801D0012400E0002434195F009A
:100A4000002A01D0012600E00026BE19954FAC42D5
:100A50000CD8AE420AD8B44206D001256D05EC424E
:100A6000BCD010461946F0BD9942FCD00020394652
:100A7000F0BDF0B51FB40C460F46811A9F412546C4
:100A8000861A9D4106D20125ED076F40401ABC41F0
:100A900052187B41210D1E0D8D1BAC467D4D8D43A3
:100AA0007ED075056D0D7CD00D05AE46AC431B03A5
:100AB0001B0B794D52429D41202366469B1B14D34C
:100AC0001746F740381800260090744160462F46BC
:100AD0000741E41900989D402818664116D47146D4
:100AE00071189A4025D5012320E093182A466A41BF
:100AF0005200002B00D0521C1E23203E9B1B002BBB
:100B000061DD3541EE1728186641E8D500187641B9
:100B10005B1C9A4000D3401C4B05F3181524E3409E
:100B200010D3002B52D071467118D30FC01802D3C6
:100B3000491C05B0F0BD0123DB079A42F9D14008FA
:100B40004000F6E701225205B21801D1002853D027
:100B50000123CC0ADB029943891E002A08D1020C2A
:100B600003D0020C0004103902E0024600202039B4
:100B70000023550B05D112020823550B01D1520158
:100B80000D23550C01D112011B1DD50C01D1920072
:100B90009B1C150D01D152005B1C2025EE1A01E0B3
:100BA0002CE022E00546F54015439840CA1AE107BB
:100BB00069181305C918002ABBDA03204007081872
:100BC000C10FC9070FE071466118B2E7F10740088D
:100BD0000843711071444A000CD001235B059A420E
:100BE000A7D2C90FC9070020A3E74905490D26D19F
:100BF000002001E00028F4D100219AE7284D66008A
:100C0000002801D0012100E0002171185F00002AB6
:100C100001D0012600E00026BE19224FA94210D8BB
:100C2000AE420ED8B14208D001256D05E94206D08A
:100C30001946A802414010467BE79C4201D021465C
:100C400077E70020394674E710B50C465C4005D5BF
:100C50000124E4076340FFF70CFF10BDFFF778FEA7
:100C600010BD30B40C465C4004D50124E407634059
:100C700030BC6DE630BCFCE670B50124E407614091
:100C80000D465D4002D4FFF763FE70BD6340FFF781
:100C9000F0FE70BDFF0700000000F0FF0000F07FD5
:100CA0000000E0FF0000F87FF0B5F94D0C091E09C7
:100CB0002C402E402F468BB0A7437DD0B543FCD0AF
:100CC000002E7AD0002CFCD00D465D40ED0F254360
:100CD000AC1BFF25AD0464190894C502440DC9027C
:100CE0002143500DDC0204430120C00701430443AB
:100CF000D2020191200C110C00958C460104234670
:100D00008B430A9161460904E24D8A430991010A25
:100D10007D4449198039097805464D4301266D18EF
:100D2000F605751B6943C90C640B891C4C43641898
:100D3000B5012C1B250C2E04B4434C434D43210C10
:100D4000691889090591009DE90701D00121C907AA
:100D500004912C4601996708CD072F434C08059D47
:100D6000E10B4D432D0C29466646754302950D4611
:100D700045432E46029D7D1BB44100950D465D43C3
:100D800001942C0C2F040D465543AE462D0C3D43CB
:100D9000029503947546049C2D04641B049406D2AA
:100DA000029C039D641C002675410395029401ACCE
:100DB00070CC009F7D1B01E03EE162E1B44109047B
:100DC0000095079101940599A4086143090C0C460C
:100DD0004443650BE7040C4666467443A646640B21
:100DE0003C43039502947446049DE4042C1B049434
:100DF00006D2029C039D641C002675410395029453
:100E000001AC70CC009F7D1BB44101940C465C4347
:100E10000095650FE7000C465443A646640F3C431B
:100E2000039502947446049DE4002C1B049406D29E
:100E3000029C039D641C002675410395029401AC3D
:100E400070CC009F7D1BB441AE09AF06049DC90064
:100E5000AD092F43049DA406AD060495079D3443B8
:100E600069180791059DE10B4D432D0C29466646F7
:100E7000754302950D4645432E46029D7D1BB441A8
:100E800000950D465D4301942C0C2F040D465543EF
:100E9000AE462D0C3D43029503947546049C2D04EB
:100EA000641B049406D2029C039D641C00267541B9
:100EB0000395029401AC70CC009F7D1BB44101945A
:100EC0008C050694079C890A611800950791019C7E
:100ED0000599A4086143090C0D464543680BEF04CE
:100EE0000D46644665436C0B3C43049FED047D1B3B
:100EF000AC4602D20025641C6841009E019D371B50
:100F000085410846584301950C46460FC500544399
:100F1000600F28436546E4002C1B02D20025401CCC
:100F20006E41019D3F1AB5412846BD098006284300
:100F30008446A009BF064E020699A4067618074308
:100F4000079D002068410A99079019430020099BDA
:100F500000906046FF1913434041E20F64003A439A
:100F6000A4460446D71A8C41A04203D90120009020
:100F700020463A46C70F941840416246D20F22439A
:100F8000644664000494009CBE466400D71AA446DC
:100F9000044602978C417746002F01D1A04204D924
:100FA0006046401C8446029A2046C40FA646941808
:100FB0004041049A0546D20F224364466400D31A86
:100FC0008D417146002901D1A84202D928461A460E
:100FD000641C10430122002800D016436102002047
:100FE000079B891904465C410223002C02DB491847
:100FF00013466441089DCE0A2D145D194B05670503
:10100000E10A2C050D1908993E43C9076940002BD8
:1010100008D0934006D30022761C5141002B01D109
:10102000760876001C4A002D43DB154241D0AA43C6
:101030003FD030460BB0F0BD06180D464D41174C61
:101040007642AC411AD395181C465C41134A6D4256
:10105000A24113D3012252054C00D4420AD15C00B4
:10106000D4420BD04B4002D592021143E2E7490033
:101070004908DFE75940C90FC90718E000200849AF
:10108000D8E7054801420DD10342F7D0F2E700004E
:101090000000FF07BA5E00000000F07F0000E0FFE4
:1010A0000000F87F114859400143C0124140002020
:1010B000C0E70123089A9B069A4205DC03225207E7
:1010C0008918C90FC907B5E7052252078918074AC9
:1010D0001143D2125140ADE770B515461C46024689
:1010E0000B4628462146FFF7DFFD70BDFFFFFF7F5F
:1010F0001F22030C02D10F22000402D0030E03D0E2
:1011000004E00020014670470002083A030F01D1B5
:101110000001121F830F01D18000921E002801DB05
:101120004000521E120551184205C01241181046C7
:101130007047C10FC90700D04042012292071143F6
:10114000D6E701218907D3E7F0B58B4C0F09254677
:1011500089B0BD437BD01D092646AE43FAD00E466A
:101160005E402740F60F3E43254071D024012142C6
:10117000FBD0FF24AD19A4042D1B039501252D05DB
:10118000DB02DB0AC9022B43C90A29431E010901FC
:10119000040F130F050121431701880B82039143AC
:1011A0002D098C46A90B1E438A039543B30B9A0362
:1011B00096433F09BA0B9403A74302962E467E43FB
:1011C0000497B6464E19D7190C4601965443059715
:1011D0007E43371B7646BF1B3601B646BE0B36191B
:1011E00000967646BC043719009C01D3641C009419
:1011F0006400002F01D001263443029E049F7543F2
:1012000066467E430496760034196E0034190094C5
:10121000029C019E1C196643751BAE4606946546EA
:101220004519059C05956C43594375460891691A03
:101230000191049E01465143A41B0491611A009C34
:101240000791E10605D061090122114302E072E035
:101250006EE06109089D00272C0A2D066918049D7F
:101260007C412A0A2D066918019D6241AC0DAD0230
:101270006D185441079A910D920255196141029AD5
:10128000644658435443069B059A5A43121A131B4B
:101290009A0E9B015B187A41010B0005C31851415E
:1012A000220A200644195A419A4200D2491C0120C0
:1012B0004002814203D315230226F64302E01423A1
:1012C0000326F6432020C51AA9401746AF40DA404E
:1012D0000A4320460399D840091473181905511878
:1012E000039A3843D2075140AC4009D001229440C0
:1012F00006D30022401C5141002C01D1400840007F
:101300001E4A934212D3012203989206904207DBB1
:101310000520400709181A480143C012414004E063
:10132000032040070818C10FC907002009B0F0BD0D
:101330000020F107FAE705180C464C4111486D42B0
:10134000A04115D394181A465A410E486442904160
:101350000ED301204A004005824209D35A0082423E
:1013600006D35940C90F084AC90700201143DDE7D9
:1013700000200649DAE700000000FF07FE07000032
:10138000FFFFFF7F0000E0FF0000F07F0000F87F1C
:101390000121C9050123411842001B06D3185B0E29
:1013A0000AD0C1100722D206891840075242D14202
:1013B00001D5520089187047090208D50146002A54
:1013C00003D0C10FC9070020704710467047420282
:1013D00002D0002002497047072109050143F4E7C4
:1013E0000000F87FF0B5FF252D04C609C209FF27CC
:1013F00004462E400137CB093E4348402A402B404B
:101400000746002A6BD0002B69D0AA4267D0AB42B6
:1014100065D0002800DA32460125ED0529432C432A
:1014200009022002090AD21A4B0C7F24E31A434C0A
:10143000000A7C44E35C7D242404121914145B002C
:10144000A218884201D3521C00E0400049420C46D9
:101450005C4324115C43DB016415E318040A5C431C
:10146000C502200D0C4644436419250A5D4323033D
:10147000EC0C0D46654300030019EB184C42A342E7
:1014800001D35B18401CD4052018002B07D05B004B
:10149000C91804D3401C002901D1400840003F2155
:1014A00089048A4209D3002A08DC1106090F04D0F6
:1014B000032149074018C00FC007F0BD01224100B9
:1014C000120689187F2252069142F6D20521490759
:1014D000C84201D59010F0BDFF20C005F0BD002F1F
:1014E00000DA32461648AA4207D2AB4205D21902A8
:1014F000090E17D0F80FC007F0BDFF2563002D06B9
:10150000AB42F9D84900A942F6D8AB4201D1A94271
:10151000F2D0A94201D1002101E061004908D005C3
:101520000843F0BD1102090EFBD0FF200243D00595
:10153000F0BD0A460146104654E700001858000066
:101540000000C07F10B501469E240002CA15A30703
:10155000002A02D01843002A04DBA21A002A0CDD5C
:10156000D04010BD1206120E01D140004008A21A50
:1015700003D4D04040420028F3DDFF224800120689
:10158000904201D9002010BDC817C043584010BD7B
:101590000102C21504D00123DB071943002A0ADB2C
:1015A0009E239A1A02D40846D0407047FF22410079
:1015B0001206914201D900207047C017C0437047FE
:1015C0001F22030C02D10F2200041CD0030E01D1F4
:1015D0000002083A030F01D10001121F830F01D14D
:1015E0008000921E002801DB4000521ED2055118D7
:1015F000021251181922904004D3491C002801D12D
:101600004908490008467047C10FC90700D0404249
:10161000012292071143D3E701218907D0E710B5D2
:10162000FEF750FE083010BD10B503F0EDF810BD08
:10163000704770477047704738B504460A46002027
:101640006946C046C046002805D00246204600999B
:1016500000F090FB012038BD10B5012000F0E5FE40
:1016600010BDF8B5C046C046054600200C46102007
:10167000C0460646A819A0420DD932466946002048
:10168000C046C046070001D100F0CFFE0098A0423E
:1016900000D00546C419FFF7C2FFF61D07460560D6
:1016A000F008C0004619284600F008F8B44204D0FB
:1016B00031463868A21B00F05DFBF8BD10B5002173
:1016C0000160416080600C3003F0F4F810BD102020
:1016D000704770B5044685690068C10601D530269B
:1016E00000E02026C00707D070BD62683046A168C0
:1016F0009047206A401C20626D1EF6D570BD70B503
:10170000044685690078C00707D170BD6268A1688A
:1017100020209047206A401C20626D1EF6D570BDC7
:1017200009684A0501D540B27047C905FCD500B229
:10173000704709684A0501D5C0B27047C905FCD594
:1017400080B2704770B50C460546012A05D028784E
:10175000800600D5EA69002302E0012305E05B1C56
:10176000934202D2E05C0028F9D1A869E618C01AB9
:10177000A861286AC01828622846FFF7AAFF04E07B
:101780006A682078A968641C9047B442F8D3284658
:10179000FFF7B5FF70BD0000F7B50025752910688B
:1017A000009914A611D0FFF7BBFF002802DA4042CF
:1017B00011A608E0009909688A0701D50FA602E082
:1017C000490704D50EA6012501E0FFF7B2FF009FEF
:1017D0000024243704E000F02EFE30313955641C1B
:1017E0000028F8D12B4632462146009800F01AFB1B
:1017F000FEBD0000000000002D0000002B000000D6
:101800002000000011680268006A530501D50870C5
:1018100009E0D30501D5088005E0130602D5C217FB
:1018200005C100E0086001207047000001694A1C02
:1018300002610878704700B58FB0029100210591D0
:10184000054901937944039111460490684600F0DC
:1018500025F90FB000BD0000E5FFFFFF0A6810701A
:10186000521C0A6070470000F7B50446154686B062
:101870002B487844002703C83E460090019111E0B0
:1018800007986A467100415A02A800F0AEFD411C5B
:1018900007D02178890603D5E269391891420ED81C
:1018A0003F18761C2078800602D5E069B84206DD34
:1018B000AE42E5DB07987100405A0028E0D1A069EC
:1018C000C01BA0612046FFF704FF154878445A3832
:1018D00003C800900020019116E041006A46079875
:1018E000415A02A800F081FD0590401C0AD0002555
:1018F00005E0626802A8A168405D90476D1C0598EC
:101900008542F6D30498401CB0420490E5DB206A7F
:10191000C01920622046FFF7F2FE09B0F0BD0000BA
:101920001A540000F7B5D21D0025D20815A6D20022
:10193000F52905CA11D0002A05DA0021404291415B
:1019400011A60A4608E0009909688B0701D50FA681
:1019500002E0490701D50EA601251146009F00248B
:10196000243704E000F021FA30323A55641C024674
:101970000A43F7D12B4632462146009800F052FA2E
:10198000FEBD0000000000002D0000002B00000044
:101990002000000070B504460021243408E05507FB
:1019A000D2086D0F303565545D072A43DB08491CAA
:1019B00015461D43F3D10468002310A2250708D55E
:1019C00020252C400C4304D0C46901230CA2641EC2
:1019D000C46100F027FA70BD10B5044621461068B6
:1019E000FFF7A7FE002302462046FFF7D3FF10BDF6
:1019F000D21DD108C9000CC9CCE7000000000000CE
:101A000030000000F8B50F460188090502D5224CC8
:101A10007C4402E0204C7C440E34054600212435F1
:101A200008E016071209360FA65D6E541E073243F2
:101A30001B09491C16461E43F3D122460478002395
:101A4000240705D5702F06D0002901D002231132BA
:101A500000F0E8F9F8BD01231032F9E770B504464B
:101A60000D4621461068FFF764FE00230246294612
:101A70002046FFF7C7FF70BDD21DD308DB000CCB9B
:101A8000C0E730B4036820241268234303600823AE
:101A9000C36130BC0023B5E784520000F3B50446AF
:101AA000002081B020622046E1688847002872D07B
:101AB000252802D06268A168ABE0594F00267F4418
:101AC0002046E16888472028054608DB312D06D2EC
:101AD000781920380078002801D00643F0E7B007D5
:101AE00001D5042086430020E0610746A0612A2D2D
:101AF0000AD0284602F0C4FE002827D0B8000019FA
:101B0000303D0090856119E00298BA00121902C8B0
:101B1000916102902046E1688847012F054617D160
:101B2000E06900281FDA202086431CE000980A2183
:101B30008069484300994019303888612046E1683F
:101B40008847054602F09CFE0028EFD1012F0AD0FD
:101B50002E2D08D12046E1688847054620200643FF
:101B60007F1C022FC3DBA069002803DA4042A0617A
:101B700001200643F00701D0102086436C2D0BD0C6
:101B8000682D09D04C2D3CD06A2D38D0742D38D01A
:101B90007A2D36D016E040E0E1682F46204688478F
:101BA000B842054609D16C2F29D001208002E16896
:101BB000064320468847054604E06C2F1DD0FF20D1
:101BC00001300643002D28D028464138192803D873
:101BD0000120C00206432035204626602946029A8D
:101BE0001646FEF7ABFA002810D001280BD0F61DE0
:101BF000F008C0000830029055E74020E1E780205F
:101C0000D5E70020D3E7361D02964CE762682846E8
:101C1000A1689047206A401C44E7206AFEBD00008E
:101C2000FE510000F7B50F460026009C2578641C85
:101C3000002D05D000F096F80068405DC007F5D192
:101C40002B2D02D02D2D18D0641E3946029A204625
:101C500000F078FB002F04D03968A14201D100992F
:101C600039607105022400290BDA4042002803DDA7
:101C7000FFF7DAFC0460A007FEBD012080020643E6
:101C8000E3E70028F8DAFFF7CFFC04600048FEBD68
:101C9000FFFFFF7F01E004C0091F0429FBD28B076F
:101CA00001D50280801CC90700D00270704700294E
:101CB0000BD0C30702D00270401C491E022904D376
:101CC000830702D50280801C891EE3E70022EEE72D
:101CD0000022DFE7F8B5224C4E00069DA6420AD846
:101CE000A64201D1002806D15E00A64203D8A64232
:101CF0000AD1002A08D00D24240425422CD02946DC
:101D0000002000F0ACFBF8BD0C461C430CD49942FB
:101D100002D0EFF30080F8BD904202D0EFF30080D4
:101D2000F8BDEFF30080F8BD09242407E5008B42DD
:101D300006D0EFF30080A043591A06D2284304E0EE
:101D4000101A05D3EFF30080A04380F30088F8BD9C
:101D5000EFF30080A043F1E7009500F097FBF8BD9A
:101D60000000E0FF10B500F0C1FB001D10BD00BF7A
:101D7000694A000070B50C4601464368002B03D049
:101D8000A34201D21846F8E703681B18A34206D005
:101D9000E31CD808C000001D031B0446D21A2260B1
:101DA0000022201DFEF7ABFB70BD0B4670B502464E
:101DB00089078008084319469D08141AA941250976
:101DC0000807054308092C194841250A01060D4357
:101DD000010A2C194141200C0D0428430D0C001957
:101DE0004D41002140194D41C00869070843E908E9
:101DF000840F8D002543840024184D4124196D4122
:101E0000121BAB4107E00925ED432C115219634128
:101E10000024401C61411C460A250026551BB44184
:101E2000F1D270BDFFB504460D4681B0243000905C
:101E30002168880604D51022E0699143216000E002
:101E40000120A84201DD471B00E000270498A1699A
:101E50007A191018081AA0612078C00602D420460A
:101E6000FFF737FC002608E003986268A168805DF0
:101E70009047206A401C761C206204988642F3DB5F
:101E80002078C0060AD52046FFF723FC06E06268EA
:101E9000A16830209047206A401C206238467F1E8F
:101EA0000028F4DC07E000986268A168405D904774
:101EB000206A401C206228466D1E0028F3DC204664
:101EC000FFF71DFC2078000602D5022005B0F0BD0A
:101ED0000120FBE77047FFB50C461E468FB003CAD2
:101EE000089009914F007D0D00D16D1E002108461C
:101EF0000020C0460321099A89050840002A03DA18
:101F00008200801840080840800D01280A9002DDF8
:101F10000020C0430A90089807430DD0EF48F049CD
:101F2000281848430714189800281DD07542291E08
:101F30001DDD0A9842421BE01898012802D00020BB
:101F4000302104E00020F24305E02154401CB0425F
:101F5000FBDB30460022189B002121540F998B6037
:101F60000A60486013B0F0BDBD1B6D1CDFE70A9A24
:101F7000002900DA69420BA800F012FB0BAB07CB7B
:101F800003AB07C30899099800F06EFB6B4607C3C3
:101F90000146D4480918002D00910ADDD149039863
:101FA0000A9A4942401803A90390684600F081FD4F
:101FB00007E003990A9A081803A90390684600F0FD
:101FC0004EFD6B4607C30004000C03D00020C04345
:101FD000410800E01046189A002A03D0002200921F
:101FE00015461EE0751E05D4FFF7DFFE3032625540
:101FF0006D1EF9D501220843079602D000227F1CEE
:1020000004E02078302801D100227F1E002A0697A4
:1020100089D01EE0112D07DAFFF7C7FE3032625576
:102020006D1C02460A43F5D1084303D000980028EE
:1020300019D00EE00021681E05E0235C625C635449
:102040002254401E491C8142F7DBA81B401E079505
:102050000690079A18990020A0540F98079B069A9B
:1020600081600CC07EE71126002018905BE7D21D2E
:10207000F0B50D460446D10893B0C90003C90C90D1
:102080000D9102F0ABFB02460D98C00F01D02D2040
:1020900007E02068810701D52B2002E04007C00F30
:1020A0004001032A0F9001D0072A05DB0346294689
:1020B000204600F021FA0EE12078800601D5E7697C
:1020C00000E006272846652D04D0662814D0672D29
:1020D00069D12DE00020112F009001DB112300E0D9
:1020E0007B1C0CAA03A910A8FFF7F5FE1199002686
:1020F00010987D1C0E9142E001203B460CAAC007BF
:102100000B900120009003A910A8FFF7E4FE119D99
:1021100012981099002600280E9501D1781C0D18F0
:10212000781B02D446427D1C761EE81B00903AE0E4
:10213000012F00DA01270020112F009001DD11236B
:1021400000E03B460CAA03A910A8FFF7C4FE1199B2
:102150003D46109800260E91217809070BD40E9960
:10216000A94200DA0D4603A9012D04DD4A19203ADF
:10217000D27F302A06D0B84201DA011D04DA0121EB
:1021800000910FE06D1EEFE7002802DC86192D1A82
:1021900003E0411CA94200DD0D46801B401C00905D
:1021A0000120C0070B902078000705D40098A842B2
:1021B00002DB0020C043009069460020C8720B98E3
:1021C000012102AF0337C907884225D002201090B1
:1021D0002B2011900B9800280BDA40420B902D20F9
:1021E000119006E00B9800F026F930317F1E0B901D
:1021F00039701099481E00291090F3DC0B980028C4
:10220000F0D111987F1E38702088000501D5452037
:1022100000E065207F1E387001A8C01BC01D0B9018
:102220000F98002800D0012041190098C017091804
:102230000B980818A169081A401EA0612078C006F2
:1022400002D42046FFF745FA0F98002805D06268AF
:10225000A1689047206A401C20622078C00625D5DE
:102260002046FFF736FA21E0002E07DB0E98B04239
:1022700004DD03A86268805DA16802E06268A1686D
:1022800030209047206A761C401C20620098401E37
:10229000002800900AD100F029F9C068626801683E
:1022A000405CA1689047206A401C206228466D1E51
:1022B0000028D9DC07E062683878A1687F1C904765
:1022C000206A401C20620B99481E00290B90F2DC0A
:1022D0002046FFF714FA032044E6000001FCFFFF4C
:1022E000104D0000E1DFFFFF10B54369002B02D065
:1022F000C046C04601E0FFF725FA012010BD127864
:10230000014624310A7000224A700122ECE711686C
:102310000022D243E8E710B54369002B02D0C04643
:10232000C04601E0FFF7A0FA012010BD1288014667
:10233000243182840022C2840122ECE71168002249
:10234000D243E8E7F7B5154682B00027029C207813
:10235000641C0197302802D0002D15D015E020789C
:102360000127641C782804D0582802D0002D09D0F9
:102370000BE0002D01D0102D07D12078002710256B
:10238000641C02E0082500E00A250026009610E003
:10239000009901276943081829467143020C80B24D
:1023A00000908E183804864201D3012001902078D5
:1023B000641C294600F0E4F80028E9DA03980028B4
:1023C00005D0002F01D0641E00E0029C046001983B
:1023D000002806D0FFF728F902210160C81E05B0C9
:1023E000F0BD009930040843F9E770B516460C4675
:1023F0000546FFF7B7FC0368FF200230C05C0128E8
:1024000007D0FF2C0ED8185D00280BD001202C70AF
:1024100070BDFF333246214608331868C31828467A
:10242000984770BD0020C04370BD10B500F076FB2A
:1024300000F06EFB10BD01468008081A0209101852
:10244000020A1018020C1018C0088200121852005C
:10245000891A01E0401C0A390A29FBD27047C802D8
:1024600012D54803400F002804D0C803C0430121FF
:1024700088407047EFF3008000010009032109073D
:10248000084380F3008870470020704710B5002093
:102490000249029A00F06AFB10BD00000000F87FBC
:1024A00001491820ABBEFEE72600020070477546C2
:1024B000FDF708FFAE46050069465346C008C00058
:1024C000854618B020B5FDF7EBFE60BC0027490833
:1024D000B6460026C0C5C0C5C0C5C0C5C0C5C0C5BC
:1024E000C0C5C0C5403D49008D46704710B5FDF7D9
:1024F000E9FE203010BD0000F8B51F460446012358
:102500000068DB02032601461840072A05DB002885
:1025100001D017A506E017A504E0002801D016A5F4
:1025200000E016A5102081432160A069C01E002F85
:10253000A06101D0401EA0612046FFF7CAF8002F1D
:1025400009D038466268A1689047206A401C206222
:10255000C01C206206E0206AFAE762682878A16859
:102560006D1C9047761EF8D22046FFF7C8F8F8BDDC
:102570004E414E006E616E00494E4600696E660027
:102580003A2800D23038202302469A43412A01D308
:1025900010463738884201D30020C04370470000FE
:1025A000F7B516468AB02F4878446C4603467C330C
:1025B000C06F5A689B680DC42A487844763003ACD3
:1025C0000DC80DC43720C001081837211B30FEF795
:1025D000DBF805460C46803D1B3C02D564420120D9
:1025E00000E00020002709900FE0E0070BD00C204E
:1025F0001C497843794432464C394118684600F00A
:102600002EFA6B4607C364107F1C002CEDD1154FCA
:102610007F442C3F15E0E80711D02001C0190EC8F7
:102620000691089307920068F04201D1981908902A
:10263000324606A903A800F012FA03AB07C36D10D7
:10264000641C002DE7D1324669460998002803A88A
:1026500002D000F02EFA01E000F001FA0A9B07C355
:102660000DB0F0BD28470000034640000A4610B5F3
:10267000400D0BD00121C9070F24A40200191C032F
:1026800064082143540D2143D20207E000210120B8
:10269000F2E7D40F490021435200401E0029F8DA26
:1026A000DB0FDB07184310BDFFB50D46144685B0A0
:1026B0004868516802F06CF800910190A868A16820
:1026C00002F066F802910390A868616802F060F871
:1026D000029A12188242029201D2012000E00020E8
:1026E000019A0B18D2180028019202D08A4202D90E
:1026F00003E08A4201D2012000E00020009908187E
:1027000000906868A16802F043F8029A12188242A9
:10271000029201D2012000E00020019A0B18D21889
:102720000028019202D08A4202D903E08A4201D2F3
:10273000012000E000200099081800902868216816
:1027400040004900400849084018EE49471814E085
:1027500001994000C90F0843009001980299400078
:10276000C90F08430190029803994000C90F08431C
:102770000290039840007F1E039000980028E7DA3B
:102780000898002801D0E04E00E00026B74228DA81
:10279000F71BF806C00E15D0029B2021091A039AD8
:1027A0008B401A430392029A019BC2408B401A430A
:1027B0000292019A009BC2408B4000991A430192F9
:1027C000C14000917A110BD06B460320811A01D5CC
:1027D000002101E0890059588700401ED951F5D5E4
:1027E000374603980299002800D001200143089839
:1027F0000291002808460CD0002800D00120019941
:10280000019A490508430121D20AC902D202019264
:1028100000E001210E9B0122D207012B02D0002BE8
:1028200003D013E0002807D116E0904204D890426C
:102830000CD1019B0B4209D0019B5918019105D184
:102840000099491C009101D17F1C0092002803D0FF
:10285000102108460020C04628682168019B009A84
:102860004840C10F0598C90739430EC009B0F0BDF3
:10287000FFB587B0099A089808995368926840682C
:10288000896896460022039317469446089A126870
:102890005300099A5B081268520052089A1A9B4B1F
:1028A000D4180A9A002A01D0352200E0402206926C
:1028B0000022012315460492DB07059324E0002D36
:1028C00005D175460346039E4D1BB34109D375469A
:1028D0006646039B491B049D9841059B7519AC46B0
:1028E0005F4163463B4308D0059B049EDD077608A5
:1028F0002E435B080496059301E0521E641EC50F2B
:10290000ED0749184041521C069B9A42D7DB002D27
:1029100004D17546039A6B1A824101D203200CE060
:10292000039A0B466B404240134303D0014303D04C
:10293000012002E0022000E0002061460191002118
:10294000009702910A99002905D06146400201438F
:102950006D4B019102E08007002302909C423ADA1D
:102960001A1BD006C00E15D0029D2021019C091A09
:10297000C5408C402543029C8C4000D00124254357
:10298000019C02953D46C4408D4039462C43C140D0
:102990000194009154111DD06D460221002202299C
:1029A0000CD10320001B07E0002804DB8600AE5991
:1029B000002E00D00122401C0328F5DB081B02D5A5
:1029C00088002A5004E08000285810438A00A8504C
:1029D000491EE3D51C460A98002802980CD000280E
:1029E00000D001200199019A490508430121D20A2A
:1029F000C902D202019200E00121109B0122D207FC
:102A0000012B02D0002B03D013E0002807D116E0E1
:102A1000904204D890420CD1019B0B4209D0019BFB
:102A20005918019105D10099491C009101D1641CEC
:102A30000092002803D0102108460020C0460898C4
:102A40000999019A0068096848400099C30F0798DE
:102A5000DB0723430360826041600BB0F0BD1FB50C
:102A6000002300920A46014601A8FFF71DFE01ABB4
:102A700007CB04B010BD1FB5012300920A460146E2
:102A800001A8FFF711FE01AB0F2407CBA402C30F6F
:102A90004000DB074008001B002900DB0020490044
:102AA00000054908CC0A204349051843D20A1143BE
:102AB000DFE71FB5002300920A46014601A8FFF791
:102AC000D7FE01AB07CBD4E71FB5012300920A461E
:102AD000014601A8FFF7CCFE01AB0F2407CBA402EF
:102AE000C30F4000DB074008001B002900DB00206B
:102AF000490000054908CC0A204349051843D20A79
:102B00001143B6E702C0FFFF013C0000FF3F000099
:102B100010B5002801D0FFF7C3FC10BD10B5012887
:102B200005D0002103A000F050F8012010BD09A13C
:102B3000F8E7000053494752544D454D3A204F7530
:102B400074206F662068656170206D656D6F7279A5
:102B5000000000003A2048656170206D656D6F725D
:102B60007920636F727275707465640010B50C46DD
:102B70001107090F092904D00A290AD008290CD104
:102B800004E011460820FFF76AFC06E0510606D56E
:102B900001E0510601D50120C007214610BDD10634
:102BA00007D501010909CC084907000E00060443B6
:102BB00009E0410F20024907000A0143200E0006E8
:102BC0001D22D14101430846E7E770B505460C4692
:102BD0000A2000E06D1C00F057F8002D06D0287880
:102BE0000028F7D102E0641C00F04EF8002C02D05F
:102BF00020780028F7D10A2000F046F870BD0000C8
:102C0000024670B50A4392072AD11E4DEE0104C850
:102C100008C9541B9443344017D0D0B2D9B2401ADB
:102C20002106014310D190B299B2401A2104014308
:102C30000AD110021902000A090A401A21020143AE
:102C400002D1100E190E401A70BD9A42DFD010BA90
:102C500019BA884201D9012070BD0020C04370BD5F
:102C600002780B78401C491C002A09D09A4207D1EF
:102C700002780B78401C491C002A01D09A42EFD000
:102C8000D01A70BD0101010108B569460870032022
:102C9000ABBE08BD000000008166704710B500297A
:102CA00005D18368054C1443A343836004E0C368E3
:102CB000024C1443A343C36010BD00000080F30323
:102CC00030B504460D460122D20729462046FFF7BB
:102CD000E5FF30BD426E520152090A434266704719
:102CE00030B504460D460122D2072946204600F0A1
:102CF0006DF830BD00B502460B0001F061FD0C0718
:102D0000090B0D0F11131517191B1D1F106A15E064
:102D1000506A13E0906A11E0D06A0FE0106B0DE08A
:102D2000506B0BE0906B09E0D06B07E0106C05E096
:102D3000506C03E0906C01E0D06C00BF00BF00BDA0
:102D40000146886E704770B504460D46102001F0AC
:102D50006BFA182000F07CF800206066256070BDDA
:102D600001460868820F01209043704710B509485A
:102D7000FFF7E6FF0446012000072040002802D0AC
:102D8000012005490870012109070248FFF784FF67
:102D900010BD000000C0014028000010F8B5044636
:102DA0000D4600F099F807462946FDF7E3FC401E62
:102DB000C6B23146204600F001F8F8BD03681A0A91
:102DC000120213460B4303607047000010B5002940
:102DD00005D18368054C23401343836004E0C36836
:102DE000024C23401343C36010BD0000FF7F0CFC66
:102DF00010B5044620680121890708432060206837
:102E000089158843206005492046FFF7C7FF2068E1
:102E1000012189028843206010BD000020A1070025
:102E200030B504460D460122920629462046FFF79A
:102E3000CDFF30BD04490A6801218140034B19438D
:102E40008A4301490A60704780800440000010DA1C
:102E500001218140034A1268034B1A401143014A81
:102E60001160704780800440FFFFEF25002070470D
:102E700000487047001BB70010B500240F48006BD6
:102E80008007800F002806D0012808D002280AD029
:102E9000032810D10BE0FFF7EBFF04460BE000F036
:102EA00029F8044607E000F09DF8044603E000F02E
:102EB0003DF8044600BF00BF204610BD40800440DE
:102EC00000487047001BB7000246D006C00E431CE6
:102ED000084658437047000010B5FFF7CDFF044681
:102EE0000348806BC1B22046FDF744FC10BD0000D2
:102EF0004080044000B50C4909688907890F002902
:102F000004D0012905D0032909D105E0FFF7B0FF5E
:102F100007E0FFF7D5FF04E0FFF7A8FF01E000207E
:102F200000BF00BF00BD00004080044010B5FFF7A7
:102F3000E1FF0446034989684806400E2146FFF731
:102F4000C3FF10BD0080044001484069C0B2704713
:102F500080800440F0B589B0FFF7F6FF0590059832
:102F6000002801D1002429E0FFF786FF029005998F
:102F7000FDF700FC0025044601F040F9039003989A
:102F8000FF281AD101F040F904900498FF30013075
:102F9000FF2101310290002026462F46079106901E
:102FA00030463946069B079AFDF790F9019100904B
:102FB0000023029AFDF7DDFA044600BF204609B05F
:102FC000F0BD000070B50446E005060FE506ED0E05
:102FD0006A1C5100B200024B9858FDF7CBFB70BD44
:102FE000386B000010B50349496AC805C00DFFF7EA
:102FF000E9FF10BD008004400149486170470000AE
:1030000080800440FEB505460E46FFF735FF01906F
:1030100029460198FDF7AEFB0446002C00D101249F
:10302000E0B2FFF7E9FF002E13D0022001F0F2F822
:10303000FF2001F00FF921460198FDF79BFB0002EC
:1030400029460090FDF796FB0746F8B201F008F913
:1030500002E0002001F0FEF8FFF77CFFFEBD00005B
:1030600042014B105B1E1A43014B5A62704700002D
:103070000080044010B500211F48FFF764FE1E4881
:10308000FFF7B6FE00BF1C48FFF76AFE0028FAD023
:103090001A491948FFF782FE00F0F6FF172000F0EA
:1030A000E5FF102000F0E2FF00F0DAFF144840686E
:1030B000182188431249486011484030406A18215D
:1030C00088430F49403148620E4A00210A48FFF701
:1030D0007DFE01210848FFF7FDFD0121102000F0D1
:1030E00029FF102001218140074A116000BF002103
:1030F0000148FFF7F5FD10BD00C00140001BB700FF
:10310000004004400034045000E100E0F0B587B016
:1031100003212A48FFF7EEFD0004000D284908604E
:103120000A212648FFF7E6FD0004000D2549086046
:1031300009684800FEF705F80646234A234BFEF7C8
:1031400003F804460022224BFDF7AEFD1E4A1F4B3A
:1031500001910090FDF785FD00221E4B0391029026
:10316000FDF7F2FF05910490FDF7B4FB1A490860E2
:10317000134909684800FDF7E4FF0446124A134B5F
:10318000FDF7E2FF06460022114BFDF78DFD0E4ACA
:103190000E4B01910090FDF764FD00220F4B03914F
:1031A0000290FDF7D1FF05910490FDF793FB0C49C8
:1031B000086001200B49087007B0F0BD00C0014055
:1031C00044000010400000106666666666660A40AD
:1031D00000FEAF400000104034000010000010C09E
:1031E000380000103C00001010B5132105204007E6
:1031F00000F0DAFD0121484010BD10B51221052074
:10320000400700F0D1FD0121484010BD10B5052058
:10321000400700F0D7FD12210520400700F0D8FD3F
:1032200013210520400700F0D3FD10BD10B50F217C
:103230000520400700F0B8FD0121484010BD10B541
:1032400010210520400700F0AFFD0121484010BDCE
:1032500010B519210520400700F0A6FD10BD10B5DE
:1032600018210520400700F09FFD10BD10B51A2160
:10327000080700F099FD10BD10B50520400700F0CB
:10328000A1FD0F210520400700F0A9FD01220F211B
:103290000520400700F0AAFD0A21080700F09FFD65
:1032A00001220A21080700F0A1FD10210520400796
:1032B00000F095FD012210210520400700F096FD49
:1032C0000B210520400700F08AFD01220B2105207B
:1032D000400700F08BFD19210520400700F07FFD1D
:1032E000002219210520400700F080FD1A2108075F
:1032F00000F075FD00221A21080700F077FD182163
:103300000520400700F06BFD002218210520400732
:1033100000F06CFD10BD10B504460120604002466F
:103320000F210520400700F061FD012060400246AA
:103330000A21080700F05AFD10BD10B5044601200F
:103340006040024610210520400700F04FFD01209B
:10335000604002460B210520400700F047FD10BDEC
:1033600010B50446224619210520400700F03EFD15
:1033700010BD10B50446224618210520400700F074
:1033800035FD10BD10B5044622461A21080700F08D
:103390002DFD10BD10B5FFF79FFD044605484068A0
:1033A000FF22520110404009411C2046FDF7E2F97E
:1033B00010BD000000400050F8B50820FFF748FDA0
:1033C0003B48006801214904084339490860084620
:1033D0004068102108433649486000F055FE1B2123
:1033E000732000F057FE00F03BFEFFF7D3FF31499A
:1033F00008607D2109012F480068FDF7BBF92E49BF
:1034000008607D2109012B480068FDF7B3F92B49BD
:1034100008602B492B480068FDF7E4FF07467F2131
:10342000C90503F009FB054623490868FEF7F4F8CF
:103430000646294603F0A8FA0446FEF7A9F81E49F5
:1034400048600020C860204808611E48006800F0FD
:1034500043F8FF201D4908601D484860FF200861AF
:103460001B48801C4861FF2088611948C01CC86146
:10347000FF2008620120000348620120154908600E
:103480000B484030406901210843094940314861F7
:103490001420104988610820C861054840308069BF
:1034A0000F21084302494031886101200861F8BDBD
:1034B000004000501C00001000410050004200502D
:1034C0000000C84218000010B80B00000043005074
:1034D0000110000000450050F8B506463046FDF7E3
:1034E00057FF04460022174B03F0A2F902D24126EF
:1034F000360609E03046FDF74BFF04460022124B2A
:1035000003F0C8F900D2114E114806601149006855
:10351000FDF768FF07467F21C90503F08DFA0546D0
:103520000D490868FEF778F82946009003F02CFA58
:103530000446FEF72DF8094948600020C860084895
:103540000861F8BD00002040004058400000C24221
:10355000180000100000C842004100500042005016
:10356000B80B000010B500210A48FFF7A9FB094875
:10357000846808200443074884600021FFF7B0FBFB
:1035800005484068042188430349486001200349F5
:10359000087010BD00C00140004000501400001031
:1035A00010B511484068042108430F494860084697
:1035B0004068082108430C49486000210B48FFF788
:1035C0007FFB0120084940310861084884680821D0
:1035D000204688430446054884600021FFF780FBAD
:1035E00000200349087010BD0040005000C0014099
:1035F0001400001010B50C480C4908600C48007805
:10360000002801D0FFF7CCFF0020FFF7A9FE002023
:10361000FFF7B8FE0020FFF7ACFE00200549086068
:103620000549087010BD0000F5350000500000107D
:1036300014000010000000105800001010B50C48D5
:103640000C4908600C480078002801D1FFF78AFF78
:103650000020FFF785FE0020FFF794FE0020FFF713
:1036600088FE0020054908600549087010BD00006B
:103670003D36000050000010140000100000001043
:103680005800001010B50C480C4908600C48007830
:10369000002801D0FFF784FF0020FFF761FE002023
:1036A000FFF770FE0120FFF764FE00200549086067
:1036B0000549087010BD000085360000500000105C
:1036C00014000010000000105800001010B50C4845
:1036D0000C4908600C480078002801D1FFF742FF30
:1036E0000020FFF73DFE0020FFF74CFE0120FFF712
:1036F00040FE0020054908600549087010BD000023
:10370000CD36000050000010140000100000001022
:103710005800001010B50C480C4908600C4800789F
:10372000002801D0FFF73CFF0020FFF719FE002022
:10373000FFF728FE0120FFF71CFE00200549086066
:103740000549087010BD000015370000500000103A
:1037500014000010000000105800001010B50C48B4
:103760000C4908600C480078002801D1FFF7FAFEE8
:103770000120FFF7F5FD0020FFF704FE0120FFF711
:10378000F8FD0020054908600549087010BD0000DB
:103790005D37000050000010140000100000001001
:1037A0005800001010B50C480C4908600C4800780F
:1037B000002801D0FFF7F4FE0020FFF7D1FD012023
:1037C000FFF7E0FD0120FFF7D4FD00200549086068
:1037D0000549087010BD0000A5370000500000101A
:1037E00014000010000000105800001010B50C4824
:1037F0000C4908600C480078002801D1FFF7B2FEA0
:103800000120FFF7ADFD0120FFF7BCFD0120FFF710
:10381000B0FD0020054908600549087010BD000092
:10382000ED370000500000101400001000000010E0
:103830005800001010B50C480C4908600C4800787E
:10384000002801D0FFF7ACFE0020FFF789FD002023
:10385000FFF798FD0020FFF78CFD00200549086068
:103860000549087010BD00003538000050000010F8
:1038700014000010000000105800001010B50C4893
:103880000C4908600C480078002801D0FFF788FE3A
:103890000020FFF765FD0020FFF774FD0020FFF713
:1038A00068FD0020054908600549087010BD00004A
:1038B0007D380000500000101400001000000010BF
:1038C0005800001070B5AB480068FDF761FD044674
:1038D0000022A94B02F0ACFF11D2A6480068FDF708
:1038E00057FD04460022A54B02F0D4FF07D2A4489E
:1038F0000068A449884201D0FFF77CFEE6E09D48BD
:103900000068FDF745FD044600229F4B02F090FF42
:103910003AD298480068FDF73BFD044600229B4BD5
:1039200002F0B8FF30D296480068994988421AD10F
:10393000984800680028E1D1FFF75FFC0028DDD03F
:10394000FFF752FC0028D9D093480078012803D112
:1039500092480078002803D18F4800780028CDD104
:10396000FFF7B4FEB2E08648006889498842C5D0B6
:10397000834800688A498842C0D0FFF783FE7D20D3
:10398000C00084490860A1E07A480068FDF700FDA6
:1039900004460022834B02F04BFF46D27548006874
:1039A000FDF7F6FC044600227F4B02F073FF3CD289
:1039B00073480068764988421AD176480068002822
:1039C0009CD1FFF71AFC002898D0FFF70DFC0028C7
:1039D0007CD071480078012803D170480078002815
:1039E00003D16D480078002870D1FFF76FFE6DE0BD
:1039F000634800686D49884268D0614800686C4936
:103A0000884263D05E4800686549884202D1FFF76A
:103A1000A5FE5BE0FFF7F1FB002857D0FFF7E4FBC2
:103A2000002853D0FFF79AFE50E052480068FDF797
:103A3000AFFC044600225F4B02F0FAFE46D24D482E
:103A40000068FDF7A5FC0446002201239B0702F055
:103A500021FF3BD24A4800684D4988421AD14D485F
:103A60000068002832D1FFF7C8FB00282ED0FFF7EE
:103A7000BBFB00282AD048480078012803D14748DA
:103A80000078002803D14448007800281ED1FFF7B1
:103A90001DFE1BE03A4800684749884216D0384866
:103AA00000684649884211D035480068404988423C
:103AB00002D1FFF79BFE09E0FFF79FFB002805D02E
:103AC000FFF792FB002801D0FFF790FE3C480078FA
:103AD00000281ED03B480068FDF75AFC044600222F
:103AE000394B02F0A5FE14D236480068FDF750FCB1
:103AF00004460022354B02F09BFE0AD220480068A3
:103B00003349884224D0FFF7B9FE32482149086082
:103B10001EE018480068FDF73BFC04460022254BD8
:103B20005B4202F0B7FE13D812480068FDF730FC84
:103B300004460022284B02F07BFE09D210480068A0
:103B40002649884204D0FFF775FE224811490860D3
:103B50000B4800682149884204D0094800681C4984
:103B6000884205D10B480068002801D1FFF742FDCB
:103B700070BD00003400001000002A400000264004
:103B800050000010F53500000000244000002040E7
:103B900085360000540000104C0000105800001042
:103BA000CD36000000001C40000014401537000016
:103BB0005D37000000001040A5370000ED37000021
:103BC000140000103800001000002AC0000026C0B9
:103BD0007D380000307500000000F03F35380000EF
:103BE00002460B46002100BF08E0505C302802DB93
:103BF000505C392801DD00207047491C9942F4DBF4
:103C0000002B01DD0120F7E70020F5E710B50446A1
:103C100022460E210520400700F0E8F810BD000004
:103C200010B50520400700F0CDF80E210520400713
:103C300000F0D5F816210520400700F0D0F800204C
:103C4000FFF7E4FF002000F049F800F01DFA012022
:103C5000FFF7D2F91521112000F01CFA14211220CF
:103C600000F018FA00F0FCF9104800F093FC042171
:103C70000E4800F071FC0121E1204003FFF7C2F97A
:103C80004B214902094800F0C5FC084800F070FCCF
:103C9000064800F0CDFC0121044800F09BFC042004
:103CA00001218140024A116000BF10BD0080064022
:103CB00000E100E070B504460D460021002600BF7B
:103CC00008E0605C904204D19E4201D1084670BD7C
:103CD000761C491CA942F4DB0020F8E710B5044625
:103CE000224616210520400700F080F810BD000094
:103CF00070B504460D46002601210D4800F068FC11
:103D00000120FFF783FF0120FFF7E8FF2A46214645
:103D1000074800F066FC0121054800F05BFC00202C
:103D2000FFF774FF0020FFF7D9FF304670BD000099
:103D30000080064070B504462046FCF7C3FC0546EB
:103D400029462046FFF7D4FF70BD0FB400B591B0EF
:103D500013A8009001A8009A1299FCF78BFC002090
:103D6000009001A8FFF7E6FF11B008BC04B01847A7
:103D70000209044B1A620A095B03D218014B5A620A
:103D8000704700000000044030B504460D4628018D
:103D900001192046FFF7ECFF30BD00000148406AE2
:103DA000C00F704700000440024621200002101896
:103DB000006801238B401840002801D00120704783
:103DC0000020FCE710B504460620FFF741F810BDBF
:103DD00001228A4009239B02C3181A6070470122FE
:103DE0008A404723DB01C3181A60704710B5002AC8
:103DF00006D001238B40112464020419236005E0DE
:103E000001238B404524E4010419236010BD30B523
:103E10008BB004460D46352006900794089501A9FD
:103E200006A800F07DFD0198C0B20BB030BD0000C7
:103E300070B58AB004460D461646332005900694A8
:103E4000079508967D21C90006480068FCF792FC9A
:103E50000990694605A800F063FD0098C0B20AB059
:103E600070BD00008000001030B58BB004460D46D8
:103E700034200690079408957D21C9000648006803
:103E8000FCF778FC099001A906A800F049FD01980B
:103E9000C0B20BB030BD00008000001030B58BB058
:103EA00004460D46322006900794089501A906A8FD
:103EB00000F036FD0198C0B20BB030BD10B500283F
:103EC00019DA1A4A03071B0F083B9B089B00D258BC
:103ED0008307DC0EFF23A3409A438B071B0E840746
:103EE000E40EA3401A43114B0407240F083CA40816
:103EF000A4001A5118E00E4A03231B02D2188308AB
:103F00009B00D2588307DC0EFF23A3409A438B0704
:103F10001B0E8407E40EA3401A43054B032424021E
:103F20001B198408A4001A5110BD00001CED00E00C
:103F300000E100E010B5002819DA1A4A03071B0F48
:103F4000083B9B089B00D2588307DC0EFF23A3404D
:103F50009A438B071B0E8407E40EA3401A43114BB0
:103F60000407240F083CA408A4001A5118E00E4AC4
:103F700003231B02D21883089B00D2588307DC0E50
:103F8000FF23A3409A438B071B0E8407E40EA34034
:103F90001A43054B032424021B198408A4001A5158
:103FA00010BD00001CED00E000E100E000BF00BF1C
:103FB00000BFBFF34F8F00BF00BF00BF06480749D7
:103FC000C86000BF00BF00BFBFF34F8F00BF00BF7E
:103FD00000BF00BF00BFFDE70400FA0500ED00E0F0
:103FE00010B51F210846FFF712FF082805D1044825
:103FF0001F22920206CA06C001E000F003F810BDBD
:104000002000001000200249086002484860704704
:10401000200000100000204110B572B61F21084694
:10402000FFF73CFF1F210846FFF71EFF1F21084630
:10403000FFF734FF0122920208491F208002FFF798
:10404000F7FE62B621211F208002FFF79DFE00BF10
:10405000FFF7A4FE0028FBD110BD000020000010D7
:1040600010B50720FEF7E6FE10BD000005490A68FE
:10407000012181407F235B0619438A4301490A607D
:1040800070470000C0C1004010B50720FEF7E0FEF9
:1040900010BD000070B504460A462307590E2511CD
:1040A0002B0000F08DFB0C07121D28333E49545F96
:1040B0006A75808B424B1868FF238B4098431346E8
:1040C0008B4003433E4E336078E03D4B5868FF23FE
:1040D0008B40984313468B400343394E73606DE029
:1040E000374B9868FF238B40984313468B4003431C
:1040F000334EB36062E0324BD868FF238B40984365
:1041000013468B4003432E4EF36057E02C4B186947
:10411000FF238B40984313468B400343284E336163
:104120004CE0274B5869FF238B40984313468B4044
:104130000343234E736141E0214B9869FF238B4079
:10414000984313468B4003431D4EB36136E01C4B2E
:10415000D869FF238B40984313468B400343184E86
:10416000F3612BE0164B186AFF238B4098431346EC
:104170008B400343124E336220E0114B586AFF23F9
:104180008B40984313468B4003430D4E736215E0FA
:104190000B4B986AFF238B40984313468B40034395
:1041A000074EB3620AE0064BD86AFF238B40984360
:1041B00013468B400343024EF36200BF00BF70BD45
:1041C00000C0004004494A6801218140034B194363
:1041D0008A4301494A607047008004400020FEFF86
:1041E00001218140034A5268034B1A401143014A9E
:1041F0005160704700800440FFDF01000148006B00
:10420000C0B27047C08004400148406BC0B27047E4
:10421000C080044010B504462046FFF7D3FF204677
:10422000FFF7DEFF10BD00000146084A926B084B05
:104230001A4010461A460A400346934318466D2218
:1042400012020243014B9A6370470000008204404F
:10425000FF8000000149086370470000C0800440EF
:104260000149486370470000C080044010B5002435
:104270005648406AC005000F030000F0A1FA10097B
:104280000B0D0F11131517191B1D1F21232527298E
:1042900000241DE04E4C1BE04E4C19E04E4C17E044
:1042A0004E4C15E04E4C13E04E4C11E04E4C0FE0DE
:1042B0004E4C0DE04E4C0BE04E4C09E04E4C07E0EE
:1042C0004E4C05E04E4C03E04E4C01E04E4C00BF1E
:1042D00000BF3E48406AC006C00E401C4100204658
:1042E000FCF748FA044639484030006B8007800FDD
:1042F000002806D0012808D0022826D0032859D14A
:1043000026E042484249086054E0304840300068A6
:104310008007800F002806D0012808D002280AD084
:10432000032810D10BE03948394908600BE03748C1
:104330003749086007E000203549086003E033484A
:104340003349086000BF00BF34E03148046031E009
:104350001E48403000688007800F002806D00128E2
:104360000ED0022816D0032822D117E01748806803
:10437000C006C00E401C254948432549086017E087
:1043800012488068C006C00E401C2049484320499E
:1043900008600DE000201E49086009E00B488068B5
:1043A000C006C00E401C194948431949086000BFA7
:1043B00000BF00BF00BF05484030816B1448006853
:1043C000FCF7D8F91249086010BD000000800440D5
:1043D000C027090090051000C05C1500F0B31A005A
:1043E000200B2000009F2400E0322900C0C62D00D1
:1043F00050973100E06735007038390000093D0002
:104400004016400080234300C0304600001BB70028
:1044100080000010012001E000BF401C0028FBD0FC
:104420001F4909681F4A11431D4A116000211C4A97
:10443000403A116051600121516000E000BF18490D
:1044400040394968C907C90F0029F7D02421144A07
:10445000803A91601449896B80229143124A91639A
:1044600000E000BF0E498039C968C907C90F00299B
:10447000F7D003210A4A403A116300215163012118
:10448000516300E000BF06494039496BC907C90FB5
:104490000029F7D00221024A403A91637047000098
:1044A00080800440800004000082044010B525484C
:1044B00000F092F8C4B2212C0AD1234800680028E9
:1044C00006D101202049086000202049086037E01B
:1044D0001D480068002833DD0D2C03D102201A4945
:1044E00008602DE00A2C06D1002017490860012041
:1044F0001749087024E014480068012815D11348B2
:104500000068402807DD00200F4908601049087046
:104510000E49086014E00F480C49096844540B48E0
:104520000068401C094908600AE007480068022842
:1045300006D1002004490860054908700349086055
:1045400010BD0000008006400800001004000010AC
:104550000C000010A800001010B50368034C2340A5
:104560001A4613460B43036010BD000001DAFC003D
:104570000168034A114001221143016070470000A5
:104580007DDAFC0001468868014A1040704700004F
:104590007FFD010070B50446204600F0AFF90546E6
:1045A000FEF756FC0848844203D10320FFF732FE91
:1045B00009E00648844203D10420FFF72BFE02E005
:1045C0000520FFF727FE70BD004006400080064032
:1045D00001617047C160704701464869C005C00D60
:1045E000704770B506460C461546002300BF0CE028
:1045F000E15C304600F00CF800BF3046FFF7C2FF28
:10460000082108400028F8D05B1CAB42F0DB70BDED
:10461000C1617047F8B504460D46FEF79BFC07469E
:104620002901FCF7A7F80646701E2062F8BD0000BD
:104630004168024A114041607047000006030100D2
:1046400010B50120800700F036F804460420204011
:1046500000280BD00121880700F058F80421080732
:1046600000F011F80120800700F046F808202040F3
:10467000002807D00821C80600F005F801208007AF
:1046800000F014F810BD04220A40002A03D002688A
:104690001B231A40026008220A40002A05D0026843
:1046A0009206920E08231A4302607047AA21816085
:1046B00055218160704701460868704710B504466F
:1046C0001120FEF7C5FB00202060FF20606002483B
:1046D00060610248A06110BDFFFF0000FFFFFF0006
:1046E00002689206920E0A4302607047416070476A
:1046F000416170478161704700B50346012118464A
:10470000FFF7EEFF1846FFF7D1FF00BD02681F2339
:104710008B431A400260704710B540210120FEF71C
:104720009FFC4020FFF780FDFEF75CFC8408012021
:104730008007FFF7C3FF610001208007FFF7D6FF66
:10474000012149024805FFF7D3FF6000211801202D
:104750008007FFF7CFFF02214807FFF7C1FF0C21B9
:1047600001208007FFF78FFF0C2001218140064ABE
:10477000116000BF00BF01218140044A116000BFE9
:104780009005FFF7B9FF10BD80E200E000E100E016
:10479000F8B5040C8BB2264682B25E430D0C10466F
:1047A000370C5843360480190021794116466E4370
:1047B000370C36048019794126466E438919F8BDB5
:1047C00030B47446641E2578641CAB4204D3635D28
:1047D0005B00E31830BC18471D46F8E74900CA02E1
:1047E0000243100000D004204A0D01D001221043E2
:1047F000044A490D914201D102210843012800D108
:1048000005207047FF07000010B508480078002811
:1048100009D001F0A1FE002805D0602148430449D9
:104820004018603810BD034810BD0000850000101E
:1048300090090010140D001010B5002A06DA52007D
:104840005208D21DD308DB00102203E0D21C9308CB
:104850009B000C22002B02D09C188C4201D9012015
:1048600010BD82188360411802604160C91AD018D7
:10487000884202D810600246F9E70020106010BD9F
:1048800030380A2801D2012070470020704700000C
:1048900080B505490978002904D0054F006803490F
:1048A000BC4600DF80BD000085000010FFFF000057
:1048B0006D5E000010B5084A03461169082900D34F
:1048C000FEE70801054C491C00191860116101F050
:1048D00059FA012010BD00005C000010300C0010DF
:1048E00080B504490978002903D0034F0068BC460D
:1048F00000DF80BD85000010955D00000146064880
:10490000814201D10E2070470448814201D10F201D
:10491000F9E71020F7E7000000400640008006405D
:1049200070B504460D4629462046014A904770BDA1
:10493000F11FFF1F10B5FFF76DFDFFF797FC7D21FD
:10494000C90014480068FBF715FF0446601E1249B1
:10495000884200D90CE0601E104948610321081FFD
:10496000FFF7ACFA00200D4988610720086100BFFD
:10497000FFF7D2FEFEF780FCFEF748FCFFF750F988
:10498000FEF71AFDFEF776FBFFF72AFBFEF732FE75
:1049900010BD000080000010FFFFFF0000E000E0FD
:1049A0000EB502468020002A0DD000290BD11178C7
:1049B000012908D1104601A900F021F8042801D0EE
:1049C000002000E01020029A019903B000BD70B5EC
:1049D0000D46040004D0002A02D12078012801D01D
:1049E000802070BD204601F0D5F8002805D029466A
:1049F000204600F027F8002070BD812070BD10B562
:104A00000446808900281CD0608980000019006954
:104A100008606078022805D10021204601F0A6FA3E
:104A200001F094FA72B6A089401EA08162B6608936
:104A3000401C80B26081E189884201D10020608100
:104A4000042010BD10B501F091FA01F07FFA10BDFD
:104A50008AB0002009900890079000240026069054
:104A600005900025049003900290FFF763FFF5483E
:104A700002233E210268F4A0FFF767F9F5A0FFF7D3
:104A800059F9F6A0FFF756F9EE484068F449086076
:104A900008460068FEF720FD40E1F2480078012852
:104AA00004D10020EF490870FEF730FBEE480069A2
:104AB000012109040840002840D0EC480078002873
:104AC0000CD10398642806DB002003900021E848FD
:104AD000FEF7A6F902E00398401C0390E548007831
:104AE000002807D00298322804DB00200290FEF74D
:104AF000E9FE02E00298401C0290DF4800680028AE
:104B000004DDDD480068401EDB490860DB480068C2
:104B100000287CD1DA480068DA49884204D0D848B5
:104B20000068D94988420AD17D20C000D349086075
:104B30000020FEF702FC0020FEF7EDFB6CE0D04801
:104B40000068D249884204D0CD480068D0498842E4
:104B50000AD17D20C000C94908600020FEF7EDFBA6
:104B60000120FEF7D8FB57E0C5480068C9498842D4
:104B700004D0C3480068C84988420AD17D20C000DB
:104B8000BE4908600120FEF7D8FB0020FEF7C3FBFA
:104B900042E0BB480068C149884204D0B848006878
:104BA000BF49884212D17D20C000B449086000206E
:104BB000FEF7B1FBFEF743FB002803D00020FEF711
:104BC000BCFB29E00120FEF7B8FB25E0AC480068FB
:104BD000B449884204D0AA480068B34988421BD12E
:104BE0007D200001A5490860FEF720FB002807D0C2
:104BF0000020FEF7A2FB0020FEF78DFB0CE006E094
:104C00000120FEF79AFB0120FEF785FB04E09B489C
:104C10000068401E99490860A448007801287DD1A9
:104C2000A348FFF7AFFC02210840002876D0A04837
:104C3000FFF7A8FCC007C00F0028F0D19B490870FF
:104C4000002320229B4801689B48FFF733F8044665
:104C5000002C7ADD2046FBF748FC09902246964955
:104C60000998FBF751FD21460998FEF7B9FF002886
:104C70006CD00998FBF710FD06900998002804D025
:104C80000998FBF76CFC002009900698002804D0D6
:104C90006C4801680698814258D10123202285483A
:104CA00001688548FFF706F80646002E73DD611C93
:104CB000701AFBF71AFC0890601C321A7E4B191808
:104CC0000898FBF721FD601C311A0898FEF788FF51
:104CD000002861D00898FBF7DFFC059008980028B1
:104CE00004D00898FBF73BFC0020089071490A6843
:104CF000711C501AFBF7F9FB07906E480368701C93
:104D00001A1A6D4B19180798FBF7FEFC69480268E0
:104D1000701C111A0798FEF763FF00E0FEE30028FD
:104D200071D00798FBF7B8FC05460798002804D017
:104D30000798FBF714FC002007900598032806D07D
:104D400010281BD011287BD1D5E0E8E3E8E3012D42
:104D500011DB5A4885420EDB3A480560FFF75CF9E3
:104D6000384802683E2138A0059BFEF7EEFF3BA0C5
:104D7000FEF7E0FF01E0012004901CE1002D60DB64
:104D80002846FCF7D6F900224D4B0191009001F026
:104D90004FFD56D801E015E111E12B00FFF710FDA2
:104DA0000C070B0F13171B1F23272B2F34394548D4
:104DB000FEF792FB38E04448FEF78EFB34E04348B0
:104DC000FEF78AFB30E04248FEF786FB2CE04148C4
:104DD000FEF782FB28E04048FEF77EFB24E03F48D8
:104DE000FEF77AFB20E03E48FEF776FB1CE03D48EC
:104DF000FEF772FB18E03C48FEF76EFB14E03B4800
:104E0000FEF76AFB10E0D7E00E494868FEF764FB46
:104E10000AE02846FCF7F8FB2A490190FCF7E2FA81
:104E20000746FEF759FB00BF00BF064802683E2157
:104E300005A0059BFEF789FF08A0FEF77BFF59E060
:104E4000B6E055E0200000102563256420253032AF
:104E5000640000002056312E300000000D0A0000D2
:104E6000100000102800001000E000E01400001006
:104E700000C001403C000010540000100000001071
:104E800050000010F53500003D360000853600006A
:104E9000CD360000153700005D370000A537000053
:104EA000ED370000353800007D3800000C000010A0
:104EB0000080064004000010A80000100F2700002A
:104EC00000508E4000002041CDCC8441CDCCAC417F
:104ED000CDCCD441333305423333554200008442B4
:104EE0000000A8420000B0420000B8420000C042EA
:104EF000012004905FE0002D57DB2846FCF719F9EC
:104F00000022FE4B0191009001F092FC4DD82B0045
:104F1000FFF756FC0B070B0F13171B1F23272B2F15
:104F20003300F748F749486031E0F748F5494860F1
:104F30002DE0F648F349486029E0F548F14948601A
:104F400025E0F448EF49486021E0F348ED49486026
:104F50001DE0F248EB49486019E0F148E949486032
:104F600015E0F048E749486011E0EF48E54948603E
:104F70000DE0EE48E349486009E02846FCF744FBB1
:104F80000746DF49FCF72EFADE49486000BF00BF44
:104F9000FFF742F8DB4802683E21E548059BFEF733
:104FA000D4FEE4A0FEF7C6FE01E00120049002E07A
:104FB0000120049000BF18E30120049015E30120B4
:104FC000049012E3DC490A68611C501AFBF78DFA61
:104FD0000890D9480368601C1A1AD84B1918089809
:104FE000FBF792FBD4480268601C111A0898FEF780
:104FF000F7FD002875D00898FBF74EFB0590089840
:10500000002804D00898FBF7AAFA00200890059819
:105010000300FFF7D5FB180D0F13FE223297BBDFFD
:10502000FDFCFBFAF9F8F7FEFEF6F5F4F3F2F1FEFB
:10503000FEF7BCFFFEF7E6FFFEF7B8FFB1480268D7
:105040003E21BB48059BFEF780FEB9480C30FEF7B9
:1050500071FEB8A0FEF76EFEC1E2AA4802683E21CA
:10506000B348059BFEF771FEA6480168B4A0FEF7A1
:105070006CFEB0A0FEF75EFEB1E2A24802683E21DF
:10508000AB48059BFEF761FEAE480068AE4988421A
:1050900003D1AEA0FEF759FE50E0AA480068AC4923
:1050A000884203D1ABA0FEF750FE47E0A548006858
:1050B000A949884203D1A9A0FEF747FE3EE0A148D6
:1050C0000068A749884203D1A6A0FEF73EFE35E05E
:1050D0009C480068A449884204D1A4A0FEF735FE8C
:1050E0002CE07DE297480068A149884203D1A1A045
:1050F000FEF72BFE22E0934800689F49884203D1C7
:105100009EA0FEF722FE19E08E4800689C49884266
:1051100003D19CA0FEF719FE10E08A4800689A4966
:10512000884203D199A0FEF710FE07E08548006889
:105130009749884202D197A0FEF707FE7DA0FEF7AF
:10514000F9FD4CE29448007801281CD001209249D6
:1051500008707C4800688649884202D1FEF7DAFA76
:1051600006E0784800688649884201D1FEF71AFBBC
:10517000644802683E216E48059BFEF7E6FD6DA07F
:10518000FEF7D8FD01E00120049028E28248007873
:1051900000281CD00020804908706A4800687449C3
:1051A000884202D1FEF7B6FA06E066480068744904
:1051B000884201D1FEF7F6FA524802683E215C4867
:1051C000059BFEF7C2FD5BA0FEF7B4FD01E00120E8
:1051D000049004E24B4802683E215548059BFEF7C7
:1051E000B4FDFEF73CF80701FEF740F8C0003F1899
:1051F000FEF72EF880000DE0C0E175E154E13BE1DF
:1052000022E109E1F0E0EEE063E04CE039E028E083
:1052100011E0E1E13F18FEF712F840003F18FEF7F9
:1052200005F838180146019045A0FEF78EFD41A013
:10523000FEF780FDD3E1334802683E213C48059BE0
:10524000FEF783FDFDF7D0FF4700FDF7D6FF3818C6
:10525000014601903AA0FEF778FD36A0FEF76AFD00
:10526000BDE1284802683E213148059BFEF76DFDEF
:105270004A48016832A0FEF768FD2EA0FEF75AFDED
:10528000ADE1204802683E212948059BFEF75DFDFF
:1052900043480068434A111A29A0FEF756FD25A08D
:1052A000FEF748FD9BE1174802683E212048059B18
:1052B000FEF74BFD3C480068FCF76AF802460B46D7
:1052C0000191009039A0FEF740FD1AA0FEF732FDD3
:1052D00085E138480078002877D00A4802683E21E6
:1052E0001348059BFEF731FD33480068FCF750F882
:1052F00002460B46019100902CA060E000508E40C9
:105300000000204120000010CDCC8441CDCCAC4128
:10531000CDCCD4413333054233335542000084426F
:105320000000A8420000B0420000B8420000C042A5
:10533000484E00000D0A000004000010A8000010F4
:105340002025640050000010F535000020300000DA
:105350003D3600002031000085360000203200007C
:10536000CD36000020330000153700002034000047
:105370005D37000020350000A53700002036000012
:10538000ED370000203700003538000020380000DD
:105390007D380000203900004C0000102C00001067
:1053A00030000010FF0F00003400001020252E32C6
:1053B00066000000140000103800001005E0FEF741
:1053C000C4FCA3A0FEF7B6FC0CE0A24802683E2194
:1053D000A148059BFEF7B9FCA0A0FEF7ABFC9CA082
:1053E000FEF7A8FCFBE0FAE09A4802683E219A48E2
:1053F000059BFEF7AAFC9D499D48006801F0C4FA90
:105400000190FCF79FF8074639469A48FEF79DFC45
:105410008FA0FEF78FFCE2E08E4802683E218E48A6
:10542000059BFEF792FC8B494868904901F0ACFA65
:105430000190FCF787F8074639468E48FEF785FC51
:1054400083A0FEF777FCCAE08B480078012810D1D2
:105450008A480078002801D1FEF784F87D48026868
:105460003E217D48059BFEF770FC79A0FEF762FCAB
:1054700001E001200490B2E07F480078012810D1BB
:105480007E480078002801D0FEF78AF8714802684B
:105490003E217148059BFEF758FC6DA0FEF74AFCC3
:1054A00001E0012004909AE07448007801280DD1B1
:1054B000684802683E216848059BFEF746FC70A0DC
:1054C000FEF738FC62A0FEF735FC0CE0614802688C
:1054D0003E216148059BFEF738FC6AA0FEF72AFCD6
:1054E0005BA0FEF727FC7AE063480078012842D1F0
:1054F000654800686549884204D06348006864498B
:10550000884211D1012063490870524802683E2147
:105510005148059BFEF719FC4DA002E095E062E0C2
:1055200063E0FEF707FC28E0574800685A498842C4
:1055300004D0554800685949884219D1524800683A
:105540005549884202D1FEF709F906E04E48006845
:105550005349884201D1FEF749F93E4802683E218D
:105560003D48059BFEF7F1FB39A0FEF7E3FB04E0A5
:105570000120049001E00120049030E03E480078D2
:10558000012826D1404800684649884204D03E4858
:1055900000684249884219D13B4800684149884225
:1055A00002D1FEF7B7F806E0374800683B49884269
:1055B00001D1FEF7F7F8274802683E212648059BEF
:1055C000FEF7C3FB22A0FEF7B5FB04E00120049028
:1055D00001E00120049002E00120049000BF04E0FB
:1055E0000120049001E001200490049801280ED1CC
:1055F00000200490174802683E211748059BFEF7DB
:10560000A4FB29A0FEF796FB11A0FEF793FB002454
:10561000002600200690059000250998002804D057
:105620000998FAF79CFF002009900898002804D0F8
:105630000898FAF794FF002008900798002804D0F3
:105640000798FAF78CFF00200790FFF726FA000072
:105650000D0A000020000010484E00002050574D59
:105660002044495341424C45440000000000204181
:1056700018000010405300004C00001014000010EF
:10568000203100002030000050000010853600005E
:10569000CD3600005800001015370000ED3700002F
:1056A000A53700005D370000204552524F520000E0
:1056B00080B5EFF30580002801D0822080BDEFF394
:1056C0001480C00703D0034FBC4600DF80BD00F04C
:1056D0004BFF80BD6965000080B588B0EFF30580A1
:1056E000002802D0822008B080BDEFF3148081072B
:1056F0001248890F06D001291AD0022910D0032997
:1057000018D112E008A981F309880078C0070AD0EF
:10571000022080F31488BFF34F8FBFF36F8F09E02F
:105720000078C00706D10320F3E70078C00701D056
:10573000FF20D8E7024FBC4600DFD4E7906B0000A3
:10574000E165000080B5EFF30582002A02D0FFF783
:1057500027F980BD014FBC4600DF80BD57660000C1
:1057600080B5EFF30582002A01D0002080BDEFF361
:105770001482064BD2075B78D20F1A4303D0044F32
:10578000BC4600DF80BD00F085FF80BD84000010B6
:1057900095660000034FBC4600DF034FBC4600DFA8
:1057A000FEE700000D6700002967000080B5024F8A
:1057B000BC4600DF80BD0000656700000025094C85
:1057C000ED4329462068FFF7BDFF02460846102A30
:1057D000F7D1FFF7EBFF0028F3D0024608469047C9
:1057E000EFE7000060000010012804D0022803D079
:1057F000032803D101E001E000E000BF00BF00BFCB
:10580000FEE700BFFEE70000074801680748416166
:1058100000218161072101610548016AFF2212060A
:1058200011430162401770478C6B000000E000E0FC
:1058300000ED00E070470146EFF31080C207D20F81
:1058400072B60868002801D003680B60002A00D1F6
:1058500062B6704710B500280ED000290CD00B316D
:105860008A089200016844680B1A1B1B934205D2F8
:10587000084609680029F5D1002010BD210007D095
:10588000211803680B604A6001600846083010BDAB
:105890004260083010BD000070B50D4600280FD0E2
:1058A0000849094C884204D222680146104600F09B
:1058B0007DFB20684570054800F0D9F800F042FCF7
:1058C00070BD0000FFFF00008C000010E40C001011
:1058D00010B50E480C4942680D480B6800689342A9
:1058E00004D00A60CB88421E9A188A808A8880B2C7
:1058F000824208D100200860044800F0B8F8014650
:10590000024800F07BFB10BDA0000010E40C00106A
:105910009C00001070B51A4DE86800282FD0A88AA6
:10592000401EA882002624E0A068002808D06168F4
:1059300041606068002802D0A16881606660A6604E
:105940000F482146183800F059FBA08AA8826078D9
:10595000042804D10B49E08A09884018A08201205C
:105960006070E068E860E068002801D00561E660EA
:105970002661A88A002802D1EC68002CD4D170BD21
:10598000FC0C00109C00001070B504000ED00C4DF3
:10599000A17828680126827891420BD900F04CFB4F
:1059A00028684670204600F0CDFB70BD054800F029
:1059B0005EF8F8E766702146024800F01FFB70BDF4
:1059C0008C000010E40C001010B50446008B084356
:1059D00020836278618B062A17D0052A14D10842E9
:1059E00012D00A460240628388432083204600F09A
:1059F0004CFB01206070628B0821204600F041FBC7
:105A00002146044800F0FAFA10BD0A468243EBD062
:105A100010BD0000E40C0010814202D342688A42AB
:105A200001D801207047EFF31082D207D20F72B66F
:105A300003680B60016000D162B600207047002847
:105A400010D000290ED00022083903E00246006879
:105A5000002807D08842F9D1002A05D000681060DC
:105A6000002070470120704700214160F8E701469F
:105A7000406842684A600B780022022B05D0012B57
:105A800003D0032B01D0426070474368002B01D044
:105A90009960426082607047810700D000207047A3
:105AA00070B504461546002020700122627022461F
:105AB000A170203211716060A060E06020612062FE
:105AC000A082E082208360835071E08C002803D1A3
:105AD0000448FFF7B0FEE0622946204600F01EF8B9
